{
  "contractName": "Accounts",
  "abi": [
    {
      "constant": true,
      "inputs": [
        {
          "name": "",
          "type": "uint256"
        }
      ],
      "name": "slist",
      "outputs": [
        {
          "name": "name",
          "type": "string"
        },
        {
          "name": "university",
          "type": "string"
        },
        {
          "name": "country",
          "type": "string"
        },
        {
          "name": "photourl",
          "type": "string"
        },
        {
          "name": "studentAccount",
          "type": "address"
        },
        {
          "name": "minimumToRaise",
          "type": "uint256"
        },
        {
          "name": "totalRaised",
          "type": "uint256"
        },
        {
          "name": "idx",
          "type": "uint256"
        },
        {
          "name": "numFunders",
          "type": "uint256"
        },
        {
          "name": "fundraising",
          "type": "bool"
        }
      ],
      "payable": false,
      "stateMutability": "view",
      "type": "function"
    },
    {
      "constant": true,
      "inputs": [
        {
          "name": "",
          "type": "address"
        },
        {
          "name": "",
          "type": "address"
        }
      ],
      "name": "pledges",
      "outputs": [
        {
          "name": "",
          "type": "uint256"
        }
      ],
      "payable": false,
      "stateMutability": "view",
      "type": "function"
    },
    {
      "constant": true,
      "inputs": [
        {
          "name": "",
          "type": "address"
        }
      ],
      "name": "lenderMap",
      "outputs": [
        {
          "name": "name",
          "type": "string"
        },
        {
          "name": "acc",
          "type": "address"
        },
        {
          "name": "totalDonated",
          "type": "uint256"
        },
        {
          "name": "balance",
          "type": "uint256"
        },
        {
          "name": "idx",
          "type": "uint256"
        }
      ],
      "payable": false,
      "stateMutability": "view",
      "type": "function"
    },
    {
      "constant": true,
      "inputs": [
        {
          "name": "",
          "type": "address"
        }
      ],
      "name": "studentMap",
      "outputs": [
        {
          "name": "name",
          "type": "string"
        },
        {
          "name": "university",
          "type": "string"
        },
        {
          "name": "country",
          "type": "string"
        },
        {
          "name": "photourl",
          "type": "string"
        },
        {
          "name": "studentAccount",
          "type": "address"
        },
        {
          "name": "minimumToRaise",
          "type": "uint256"
        },
        {
          "name": "totalRaised",
          "type": "uint256"
        },
        {
          "name": "idx",
          "type": "uint256"
        },
        {
          "name": "numFunders",
          "type": "uint256"
        },
        {
          "name": "fundraising",
          "type": "bool"
        }
      ],
      "payable": false,
      "stateMutability": "view",
      "type": "function"
    },
    {
      "constant": true,
      "inputs": [
        {
          "name": "",
          "type": "uint256"
        }
      ],
      "name": "llist",
      "outputs": [
        {
          "name": "name",
          "type": "string"
        },
        {
          "name": "acc",
          "type": "address"
        },
        {
          "name": "totalDonated",
          "type": "uint256"
        },
        {
          "name": "balance",
          "type": "uint256"
        },
        {
          "name": "idx",
          "type": "uint256"
        }
      ],
      "payable": false,
      "stateMutability": "view",
      "type": "function"
    },
    {
      "constant": false,
      "inputs": [
        {
          "name": "name",
          "type": "string"
        }
      ],
      "name": "incrementStudent",
      "outputs": [
        {
          "name": "",
          "type": "string"
        }
      ],
      "payable": false,
      "stateMutability": "nonpayable",
      "type": "function"
    },
    {
      "constant": false,
      "inputs": [
        {
          "name": "sName",
          "type": "string"
        },
        {
          "name": "uni",
          "type": "string"
        },
        {
          "name": "country",
          "type": "string"
        },
        {
          "name": "photo",
          "type": "string"
        }
      ],
      "name": "addStudent",
      "outputs": [],
      "payable": false,
      "stateMutability": "nonpayable",
      "type": "function"
    },
    {
      "constant": false,
      "inputs": [
        {
          "name": "fundGoal",
          "type": "uint256"
        }
      ],
      "name": "startFundraising",
      "outputs": [],
      "payable": false,
      "stateMutability": "nonpayable",
      "type": "function"
    },
    {
      "constant": false,
      "inputs": [
        {
          "name": "lName",
          "type": "string"
        }
      ],
      "name": "addLender",
      "outputs": [
        {
          "components": [
            {
              "name": "name",
              "type": "string"
            },
            {
              "name": "acc",
              "type": "address"
            },
            {
              "name": "totalDonated",
              "type": "uint256"
            },
            {
              "name": "balance",
              "type": "uint256"
            },
            {
              "name": "idx",
              "type": "uint256"
            }
          ],
          "name": "",
          "type": "tuple"
        }
      ],
      "payable": false,
      "stateMutability": "nonpayable",
      "type": "function"
    },
    {
      "constant": false,
      "inputs": [
        {
          "name": "sIdx",
          "type": "uint256"
        }
      ],
      "name": "fund",
      "outputs": [],
      "payable": true,
      "stateMutability": "payable",
      "type": "function"
    },
    {
      "constant": false,
      "inputs": [
        {
          "name": "stdntAcct",
          "type": "address"
        }
      ],
      "name": "checkGoalReached",
      "outputs": [],
      "payable": false,
      "stateMutability": "nonpayable",
      "type": "function"
    },
    {
      "constant": false,
      "inputs": [
        {
          "name": "amtNeeded",
          "type": "uint256"
        }
      ],
      "name": "withdraw",
      "outputs": [],
      "payable": false,
      "stateMutability": "nonpayable",
      "type": "function"
    },
    {
      "constant": true,
      "inputs": [
        {
          "name": "idx",
          "type": "uint256"
        }
      ],
      "name": "getStudentNameIdx",
      "outputs": [
        {
          "name": "",
          "type": "string"
        }
      ],
      "payable": false,
      "stateMutability": "view",
      "type": "function"
    },
    {
      "constant": true,
      "inputs": [
        {
          "name": "idx",
          "type": "uint256"
        }
      ],
      "name": "getStudentUniIdx",
      "outputs": [
        {
          "name": "",
          "type": "string"
        }
      ],
      "payable": false,
      "stateMutability": "view",
      "type": "function"
    },
    {
      "constant": true,
      "inputs": [
        {
          "name": "idx",
          "type": "uint256"
        }
      ],
      "name": "getStudentCountryIdx",
      "outputs": [
        {
          "name": "",
          "type": "string"
        }
      ],
      "payable": false,
      "stateMutability": "view",
      "type": "function"
    },
    {
      "constant": true,
      "inputs": [
        {
          "name": "idx",
          "type": "uint256"
        }
      ],
      "name": "getStudentPhotoURL",
      "outputs": [
        {
          "name": "",
          "type": "string"
        }
      ],
      "payable": false,
      "stateMutability": "view",
      "type": "function"
    },
    {
      "constant": true,
      "inputs": [
        {
          "name": "idx",
          "type": "uint256"
        }
      ],
      "name": "getStudentAccIdx",
      "outputs": [
        {
          "name": "",
          "type": "address"
        }
      ],
      "payable": false,
      "stateMutability": "view",
      "type": "function"
    },
    {
      "constant": true,
      "inputs": [
        {
          "name": "idx",
          "type": "uint256"
        }
      ],
      "name": "getStudentMinReqIdx",
      "outputs": [
        {
          "name": "",
          "type": "uint256"
        }
      ],
      "payable": false,
      "stateMutability": "view",
      "type": "function"
    },
    {
      "constant": true,
      "inputs": [
        {
          "name": "idx",
          "type": "uint256"
        }
      ],
      "name": "getStudentRaisedIdx",
      "outputs": [
        {
          "name": "",
          "type": "uint256"
        }
      ],
      "payable": false,
      "stateMutability": "view",
      "type": "function"
    },
    {
      "constant": true,
      "inputs": [
        {
          "name": "idx",
          "type": "uint256"
        }
      ],
      "name": "getStudentFundraisingIdx",
      "outputs": [
        {
          "name": "",
          "type": "bool"
        }
      ],
      "payable": false,
      "stateMutability": "view",
      "type": "function"
    },
    {
      "constant": true,
      "inputs": [
        {
          "name": "idx",
          "type": "uint256"
        }
      ],
      "name": "getNumStudentFundersIdx",
      "outputs": [
        {
          "name": "",
          "type": "uint256"
        }
      ],
      "payable": false,
      "stateMutability": "view",
      "type": "function"
    },
    {
      "constant": true,
      "inputs": [],
      "name": "getStudentNameByAddress",
      "outputs": [
        {
          "name": "",
          "type": "string"
        }
      ],
      "payable": false,
      "stateMutability": "view",
      "type": "function"
    },
    {
      "constant": true,
      "inputs": [],
      "name": "getStudentIdxByAddress",
      "outputs": [
        {
          "name": "",
          "type": "uint256"
        }
      ],
      "payable": false,
      "stateMutability": "view",
      "type": "function"
    },
    {
      "constant": true,
      "inputs": [],
      "name": "getLenderNameByAddress",
      "outputs": [
        {
          "name": "",
          "type": "string"
        }
      ],
      "payable": false,
      "stateMutability": "view",
      "type": "function"
    },
    {
      "constant": true,
      "inputs": [],
      "name": "getLenderIdxByAddress",
      "outputs": [
        {
          "name": "",
          "type": "uint256"
        }
      ],
      "payable": false,
      "stateMutability": "view",
      "type": "function"
    },
    {
      "constant": true,
      "inputs": [],
      "name": "getStudentCount",
      "outputs": [
        {
          "name": "",
          "type": "uint256"
        }
      ],
      "payable": false,
      "stateMutability": "view",
      "type": "function"
    },
    {
      "constant": true,
      "inputs": [],
      "name": "gitLenderCount",
      "outputs": [
        {
          "name": "",
          "type": "uint256"
        }
      ],
      "payable": false,
      "stateMutability": "view",
      "type": "function"
    },
    {
      "constant": true,
      "inputs": [
        {
          "name": "lidx",
          "type": "uint256"
        }
      ],
      "name": "getLenderBalanceIdx",
      "outputs": [
        {
          "name": "",
          "type": "uint256"
        }
      ],
      "payable": false,
      "stateMutability": "view",
      "type": "function"
    },
    {
      "constant": true,
      "inputs": [],
      "name": "getContractBalance",
      "outputs": [
        {
          "name": "",
          "type": "uint256"
        }
      ],
      "payable": false,
      "stateMutability": "view",
      "type": "function"
    }
  ],
  "bytecode": "0x6060604052600080556000600155341561001857600080fd5b612eb0806100276000396000f300606060405260043610610175576000357c0100000000000000000000000000000000000000000000000000000000900463ffffffff1680630b28f9bc1461017a5780630df6fd28146101b95780630fa7ff9a146101e257806318712f2b1461020b5780631fdaa545146102345780632671f08c146102565780632b0f9e1e1461028c5780632e1a7d4d146102c25780632eb234e0146102e457806341e0c4071461031a5780634be3b219146103435780635caa39eb146103795780636403a713146103b3578063658d43a5146103dc578063676252881461041b5780636ca617d8146104515780636f9fb98a146104875780638239377a146104b05780638b0f044c146104e657806392abbec81461051c578063befd4d9b14610552578063c055b61314610588578063ca1d209d146105be578063dd7e9f16146105d5578063e44258551461060f578063e802206814610631578063efb50e851461065a578063f1323c2414610690578063f439405f146106b2575b600080fd5b341561018557600080fd5b61019a60046101959036906129c2565b6106e8565b6040516101b09a99989796959493929190612c3b565b60405180910390f35b34156101c457600080fd5b6101cc610774565b6040516101d99190612d15565b60405180910390f35b34156101ed57600080fd5b6101f56107be565b6040516102029190612d15565b60405180910390f35b341561021657600080fd5b61021e610808565b60405161022b9190612bbf565b60405180910390f35b341561023f57600080fd5b610254600461024f903690612808565b6108f0565b005b341561026157600080fd5b61027660046102719036906129c2565b610bdf565b6040516102839190612bbf565b60405180910390f35b341561029757600080fd5b6102ac60046102a79036906129c2565b610ca7565b6040516102b99190612ba4565b60405180910390f35b34156102cd57600080fd5b6102e260046102dd9036906129c2565b610cde565b005b34156102ef57600080fd5b61030460046102ff9036906129c2565b611026565b6040516103119190612bbf565b60405180910390f35b341561032557600080fd5b61032d6110ee565b60405161033a9190612d15565b60405180910390f35b341561034e57600080fd5b610363600461035e90369061283a565b6110f8565b6040516103709190612d15565b60405180910390f35b341561038457600080fd5b6103996004610394903690612808565b61111d565b6040516103aa959493929190612be1565b60405180910390f35b34156103be57600080fd5b6103c6611172565b6040516103d39190612d15565b60405180910390f35b34156103e757600080fd5b6103fc60046103f7903690612808565b61117b565b6040516104129a99989796959493929190612c3b565b60405180910390f35b341561042657600080fd5b61043b60046104369036906129c2565b6111f8565b6040516104489190612bbf565b60405180910390f35b341561045c57600080fd5b610471600461046c90369061287f565b6112c0565b60405161047e9190612bbf565b60405180910390f35b341561049257600080fd5b61049a6112db565b6040516104a79190612d15565b60405180910390f35b34156104bb57600080fd5b6104d060046104cb9036906129c2565b6112fa565b6040516104dd9190612d15565b60405180910390f35b34156104f157600080fd5b610506600461050190369061287f565b611324565b6040516105139190612cf3565b60405180910390f35b341561052757600080fd5b61053c60046105379036906129c2565b61151b565b6040516105499190612bbf565b60405180910390f35b341561055d57600080fd5b610572600461056d9036906129c2565b6115e3565b60405161057f9190612d15565b60405180910390f35b341561059357600080fd5b6105a860046105a39036906129c2565b61160d565b6040516105b59190612d15565b60405180910390f35b6105d360046105ce9036906129c2565b611637565b005b34156105e057600080fd5b6105f560046105f09036906129c2565b611c14565b604051610606959493929190612be1565b60405180910390f35b341561061a57600080fd5b61062f600461062a9036906129c2565b611c78565b005b341561063c57600080fd5b610644611f25565b6040516106519190612bbf565b60405180910390f35b341561066557600080fd5b61067a60046106759036906129c2565b61200d565b6040516106879190612d15565b60405180910390f35b341561069b57600080fd5b6106b060046106ab9036906128d2565b612037565b005b34156106bd57600080fd5b6106d260046106cd9036906129c2565b612337565b6040516106df9190612b89565b60405180910390f35b6004818154811015156106f757fe5b90600052602060002090600a020160009150905080600001908060010190806002019080600301908060040160009054906101000a900473ffffffffffffffffffffffffffffffffffffffff16908060050154908060060154908060070154908060080154908060090160009054906101000a900460ff1690508a565b6000600560003373ffffffffffffffffffffffffffffffffffffffff1673ffffffffffffffffffffffffffffffffffffffff16815260200190815260200160002060040154905090565b6000600360003373ffffffffffffffffffffffffffffffffffffffff1673ffffffffffffffffffffffffffffffffffffffff16815260200190815260200160002060070154905090565b610810612381565b600360003373ffffffffffffffffffffffffffffffffffffffff1673ffffffffffffffffffffffffffffffffffffffff1681526020019081526020016000206000018054600181600116156101000203166002900480601f0160208091040260200160405190810160405280929190818152602001828054600181600116156101000203166002900480156108e65780601f106108bb576101008083540402835291602001916108e6565b820191906000526020600020905b8154815290600101906020018083116108c957829003601f168201915b5050505050905090565b6000600360008373ffffffffffffffffffffffffffffffffffffffff1673ffffffffffffffffffffffffffffffffffffffff16815260200190815260200160002060050154600360008473ffffffffffffffffffffffffffffffffffffffff1673ffffffffffffffffffffffffffffffffffffffff16815260200190815260200160002060060154101515610bdb576000600360008473ffffffffffffffffffffffffffffffffffffffff1673ffffffffffffffffffffffffffffffffffffffff16815260200190815260200160002060090160006101000a81548160ff021916908315150217905550600360008373ffffffffffffffffffffffffffffffffffffffff1673ffffffffffffffffffffffffffffffffffffffff168152602001908152602001600020600701549050600360008373ffffffffffffffffffffffffffffffffffffffff1673ffffffffffffffffffffffffffffffffffffffff168152602001908152602001600020600482815481101515610a6d57fe5b90600052602060002090600a020160008201816000019080546001816001161561010002031660029004610aa2929190612395565b5060018201816001019080546001816001161561010002031660029004610aca929190612395565b5060028201816002019080546001816001161561010002031660029004610af2929190612395565b5060038201816003019080546001816001161561010002031660029004610b1a929190612395565b506004820160009054906101000a900473ffffffffffffffffffffffffffffffffffffffff168160040160006101000a81548173ffffffffffffffffffffffffffffffffffffffff021916908373ffffffffffffffffffffffffffffffffffffffff160217905550600582015481600501556006820154816006015560078201548160070155600882015481600801556009820160009054906101000a900460ff168160090160006101000a81548160ff0219169083151502179055509050505b5050565b610be7612381565b600482815481101515610bf657fe5b90600052602060002090600a02016003018054600181600116156101000203166002900480601f016020809104026020016040519081016040528092919081815260200182805460018160011615610100020316600290048015610c9b5780601f10610c7057610100808354040283529160200191610c9b565b820191906000526020600020905b815481529060010190602001808311610c7e57829003601f168201915b50505050509050919050565b6000600482815481101515610cb857fe5b90600052602060002090600a020160090160009054906101000a900460ff169050919050565b600080339150600360008373ffffffffffffffffffffffffffffffffffffffff1673ffffffffffffffffffffffffffffffffffffffff16815260200190815260200160002060090160009054906101000a900460ff16151515610d4057600080fd5b82600360008473ffffffffffffffffffffffffffffffffffffffff1673ffffffffffffffffffffffffffffffffffffffff1681526020019081526020016000206006015410151515610d9157600080fd5b600360008373ffffffffffffffffffffffffffffffffffffffff1673ffffffffffffffffffffffffffffffffffffffff16815260200190815260200160002060070154905082600360008473ffffffffffffffffffffffffffffffffffffffff1673ffffffffffffffffffffffffffffffffffffffff16815260200190815260200160002060060160008282540392505081905550600360008373ffffffffffffffffffffffffffffffffffffffff1673ffffffffffffffffffffffffffffffffffffffff168152602001908152602001600020600482815481101515610e7457fe5b90600052602060002090600a020160008201816000019080546001816001161561010002031660029004610ea9929190612395565b5060018201816001019080546001816001161561010002031660029004610ed1929190612395565b5060028201816002019080546001816001161561010002031660029004610ef9929190612395565b5060038201816003019080546001816001161561010002031660029004610f21929190612395565b506004820160009054906101000a900473ffffffffffffffffffffffffffffffffffffffff168160040160006101000a81548173ffffffffffffffffffffffffffffffffffffffff021916908373ffffffffffffffffffffffffffffffffffffffff160217905550600582015481600501556006820154816006015560078201548160070155600882015481600801556009820160009054906101000a900460ff168160090160006101000a81548160ff0219169083151502179055509050508173ffffffffffffffffffffffffffffffffffffffff166108fc849081150290604051600060405180830381858888f19350505050151561102157600080fd5b505050565b61102e612381565b60048281548110151561103d57fe5b90600052602060002090600a02016000018054600181600116156101000203166002900480601f0160208091040260200160405190810160405280929190818152602001828054600181600116156101000203166002900480156110e25780601f106110b7576101008083540402835291602001916110e2565b820191906000526020600020905b8154815290600101906020018083116110c557829003601f168201915b50505050509050919050565b6000600154905090565b6002602052816000526040600020602052806000526040600020600091509150505481565b600560205280600052604060002060009150905080600001908060010160009054906101000a900473ffffffffffffffffffffffffffffffffffffffff16908060020154908060030154908060040154905085565b60008054905090565b600360205280600052604060002060009150905080600001908060010190806002019080600301908060040160009054906101000a900473ffffffffffffffffffffffffffffffffffffffff16908060050154908060060154908060070154908060080154908060090160009054906101000a900460ff1690508a565b611200612381565b60048281548110151561120f57fe5b90600052602060002090600a02016001018054600181600116156101000203166002900480601f0160208091040260200160405190810160405280929190818152602001828054600181600116156101000203166002900480156112b45780601f10611289576101008083540402835291602001916112b4565b820191906000526020600020905b81548152906001019060200180831161129757829003601f168201915b50505050509050919050565b6112c8612381565b6001805401600181905550819050919050565b60003073ffffffffffffffffffffffffffffffffffffffff1631905090565b600060048281548110151561130b57fe5b90600052602060002090600a0201600501549050919050565b61132c61241c565b61133461241c565b60a0604051908101604052808481526020013373ffffffffffffffffffffffffffffffffffffffff168152602001600081526020013373ffffffffffffffffffffffffffffffffffffffff16318152602001600054815250905080600560003373ffffffffffffffffffffffffffffffffffffffff1673ffffffffffffffffffffffffffffffffffffffff16815260200190815260200160002060008201518160000190805190602001906113ea929190612468565b5060208201518160010160006101000a81548173ffffffffffffffffffffffffffffffffffffffff021916908373ffffffffffffffffffffffffffffffffffffffff1602179055506040820151816002015560608201518160030155608082015181600401559050506006805480600101828161146791906124e8565b916000526020600020906005020160008390919091506000820151816000019080519060200190611499929190612468565b5060208201518160010160006101000a81548173ffffffffffffffffffffffffffffffffffffffff021916908373ffffffffffffffffffffffffffffffffffffffff1602179055506040820151816002015560608201518160030155608082015181600401555050506001600080828254019250508190555080915050919050565b611523612381565b60048281548110151561153257fe5b90600052602060002090600a02016002018054600181600116156101000203166002900480601f0160208091040260200160405190810160405280929190818152602001828054600181600116156101000203166002900480156115d75780601f106115ac576101008083540402835291602001916115d7565b820191906000526020600020905b8154815290600101906020018083116115ba57829003601f168201915b50505050509050919050565b60006004828154811015156115f457fe5b90600052602060002090600a0201600801549050919050565b600060048281548110151561161e57fe5b90600052602060002090600a0201600601549050919050565b600080600060048481548110151561164b57fe5b90600052602060002090600a020160040160009054906101000a900473ffffffffffffffffffffffffffffffffffffffff16925034915081600560003373ffffffffffffffffffffffffffffffffffffffff1673ffffffffffffffffffffffffffffffffffffffff16815260200190815260200160002060030154101515156116d357600080fd5b600360008473ffffffffffffffffffffffffffffffffffffffff1673ffffffffffffffffffffffffffffffffffffffff16815260200190815260200160002060090160009054906101000a900460ff16151561172e57600080fd5b600560003373ffffffffffffffffffffffffffffffffffffffff1673ffffffffffffffffffffffffffffffffffffffff16815260200190815260200160002060040154905081600260003373ffffffffffffffffffffffffffffffffffffffff1673ffffffffffffffffffffffffffffffffffffffff16815260200190815260200160002060008573ffffffffffffffffffffffffffffffffffffffff1673ffffffffffffffffffffffffffffffffffffffff168152602001908152602001600020600082825401925050819055506001600360008573ffffffffffffffffffffffffffffffffffffffff1673ffffffffffffffffffffffffffffffffffffffff1681526020019081526020016000206008016000828254019250508190555081600360008573ffffffffffffffffffffffffffffffffffffffff1673ffffffffffffffffffffffffffffffffffffffff1681526020019081526020016000206006016000828254019250508190555081600560003373ffffffffffffffffffffffffffffffffffffffff1673ffffffffffffffffffffffffffffffffffffffff1681526020019081526020016000206003016000828254039250508190555081600560003373ffffffffffffffffffffffffffffffffffffffff1673ffffffffffffffffffffffffffffffffffffffff16815260200190815260200160002060020160008282540192505081905550600560003373ffffffffffffffffffffffffffffffffffffffff1673ffffffffffffffffffffffffffffffffffffffff16815260200190815260200160002060068281548110151561198c57fe5b9060005260206000209060050201600082018160000190805460018160011615610100020316600290046119c1929190612395565b506001820160009054906101000a900473ffffffffffffffffffffffffffffffffffffffff168160010160006101000a81548173ffffffffffffffffffffffffffffffffffffffff021916908373ffffffffffffffffffffffffffffffffffffffff160217905550600282015481600201556003820154816003015560048201548160040155905050600360008473ffffffffffffffffffffffffffffffffffffffff1673ffffffffffffffffffffffffffffffffffffffff168152602001908152602001600020600485815481101515611a9857fe5b90600052602060002090600a020160008201816000019080546001816001161561010002031660029004611acd929190612395565b5060018201816001019080546001816001161561010002031660029004611af5929190612395565b5060028201816002019080546001816001161561010002031660029004611b1d929190612395565b5060038201816003019080546001816001161561010002031660029004611b45929190612395565b506004820160009054906101000a900473ffffffffffffffffffffffffffffffffffffffff168160040160006101000a81548173ffffffffffffffffffffffffffffffffffffffff021916908373ffffffffffffffffffffffffffffffffffffffff160217905550600582015481600501556006820154816006015560078201548160070155600882015481600801556009820160009054906101000a900460ff168160090160006101000a81548160ff021916908315150217905550905050611c0e836108f0565b50505050565b600681815481101515611c2357fe5b906000526020600020906005020160009150905080600001908060010160009054906101000a900473ffffffffffffffffffffffffffffffffffffffff16908060020154908060030154908060040154905085565b600080339150600360008373ffffffffffffffffffffffffffffffffffffffff1673ffffffffffffffffffffffffffffffffffffffff1681526020019081526020016000206007015490506001600360008473ffffffffffffffffffffffffffffffffffffffff1673ffffffffffffffffffffffffffffffffffffffff16815260200190815260200160002060090160006101000a81548160ff02191690831515021790555082600360008473ffffffffffffffffffffffffffffffffffffffff1673ffffffffffffffffffffffffffffffffffffffff16815260200190815260200160002060050181905550600360008373ffffffffffffffffffffffffffffffffffffffff1673ffffffffffffffffffffffffffffffffffffffff168152602001908152602001600020600482815481101515611db357fe5b90600052602060002090600a020160008201816000019080546001816001161561010002031660029004611de8929190612395565b5060018201816001019080546001816001161561010002031660029004611e10929190612395565b5060028201816002019080546001816001161561010002031660029004611e38929190612395565b5060038201816003019080546001816001161561010002031660029004611e60929190612395565b506004820160009054906101000a900473ffffffffffffffffffffffffffffffffffffffff168160040160006101000a81548173ffffffffffffffffffffffffffffffffffffffff021916908373ffffffffffffffffffffffffffffffffffffffff160217905550600582015481600501556006820154816006015560078201548160070155600882015481600801556009820160009054906101000a900460ff168160090160006101000a81548160ff021916908315150217905550905050505050565b611f2d612381565b600560003373ffffffffffffffffffffffffffffffffffffffff1673ffffffffffffffffffffffffffffffffffffffff1681526020019081526020016000206000018054600181600116156101000203166002900480601f0160208091040260200160405190810160405280929190818152602001828054600181600116156101000203166002900480156120035780601f10611fd857610100808354040283529160200191612003565b820191906000526020600020905b815481529060010190602001808311611fe657829003601f168201915b5050505050905090565b600060068281548110151561201e57fe5b9060005260206000209060050201600301549050919050565b61203f61251a565b610140604051908101604052808681526020018581526020018481526020018381526020013373ffffffffffffffffffffffffffffffffffffffff168152602001600081526020016000815260200160015481526020016000815260200160001515815250905080600360003373ffffffffffffffffffffffffffffffffffffffff1673ffffffffffffffffffffffffffffffffffffffff1681526020019081526020016000206000820151816000019080519060200190612102929190612468565b50602082015181600101908051906020019061211f929190612468565b50604082015181600201908051906020019061213c929190612468565b506060820151816003019080519060200190612159929190612468565b5060808201518160040160006101000a81548173ffffffffffffffffffffffffffffffffffffffff021916908373ffffffffffffffffffffffffffffffffffffffff16021790555060a0820151816005015560c0820151816006015560e0820151816007015561010082015181600801556101208201518160090160006101000a81548160ff02191690831515021790555090505060048054806001018281612202919061259e565b91600052602060002090600a020160008390919091506000820151816000019080519060200190612234929190612468565b506020820151816001019080519060200190612251929190612468565b50604082015181600201908051906020019061226e929190612468565b50606082015181600301908051906020019061228b929190612468565b5060808201518160040160006101000a81548173ffffffffffffffffffffffffffffffffffffffff021916908373ffffffffffffffffffffffffffffffffffffffff16021790555060a0820151816005015560c0820151816006015560e0820151816007015561010082015181600801556101208201518160090160006101000a81548160ff021916908315150217905550505050600180600082825401925050819055505050505050565b600060048281548110151561234857fe5b90600052602060002090600a020160040160009054906101000a900473ffffffffffffffffffffffffffffffffffffffff169050919050565b602060405190810160405280600081525090565b828054600181600116156101000203166002900490600052602060002090601f016020900481019282601f106123ce578054855561240b565b8280016001018555821561240b57600052602060002091601f016020900482015b8281111561240a5782548255916001019190600101906123ef565b5b50905061241891906125d0565b5090565b60a0604051908101604052806124306125f5565b8152602001600073ffffffffffffffffffffffffffffffffffffffff1681526020016000815260200160008152602001600081525090565b828054600181600116156101000203166002900490600052602060002090601f016020900481019282601f106124a957805160ff19168380011785556124d7565b828001600101855582156124d7579182015b828111156124d65782518255916020019190600101906124bb565b5b5090506124e491906125d0565b5090565b815481835581811511612515576005028160050283600052602060002091820191016125149190612609565b5b505050565b6101406040519081016040528061252f6125f5565b815260200161253c6125f5565b81526020016125496125f5565b81526020016125566125f5565b8152602001600073ffffffffffffffffffffffffffffffffffffffff168152602001600081526020016000815260200160008152602001600081526020016000151581525090565b8154818355818115116125cb57600a0281600a0283600052602060002091820191016125ca9190612677565b5b505050565b6125f291905b808211156125ee5760008160009055506001016125d6565b5090565b90565b602060405190810160405280600081525090565b61267491905b8082111561267057600080820160006126289190612731565b6001820160006101000a81549073ffffffffffffffffffffffffffffffffffffffff02191690556002820160009055600382016000905560048201600090555060050161260f565b5090565b90565b61272e91905b8082111561272a57600080820160006126969190612731565b6001820160006126a69190612731565b6002820160006126b69190612731565b6003820160006126c69190612731565b6004820160006101000a81549073ffffffffffffffffffffffffffffffffffffffff021916905560058201600090556006820160009055600782016000905560088201600090556009820160006101000a81549060ff021916905550600a0161267d565b5090565b90565b50805460018160011615610100020316600290046000825580601f106127575750612776565b601f01602090049060005260206000209081019061277591906125d0565b5b50565b60006127858235612df9565b905092915050565b600082601f830112600081146127a2576127a7565b600080fd5b5081356127bb6127b682612d66565b612d30565b915080825260208301602083018583830111600181146127da576127df565b600080fd5b506127eb838284612e23565b50505092915050565b60006128008235612e19565b905092915050565b60006020828403126001811461281d57612822565b600080fd5b50600061283184828501612779565b91505092915050565b6000806040838503126001811461285057612855565b600080fd5b50600061286485828601612779565b925050602061287585828601612779565b9150509250929050565b60006020828403126001811461289457612899565b600080fd5b50600082013567ffffffffffffffff8111600181146128b7576128bc565b600080fd5b506128c98482850161278d565b91505092915050565b600080600080608085870312600181146128eb576128f0565b600080fd5b50600085013567ffffffffffffffff81116001811461290e57612913565b600080fd5b506129208782880161278d565b945050602085013567ffffffffffffffff81116001811461294057612945565b600080fd5b506129528782880161278d565b935050604085013567ffffffffffffffff81116001811461297257612977565b600080fd5b506129848782880161278d565b925050606085013567ffffffffffffffff8111600181146129a4576129a9565b600080fd5b506129b68782880161278d565b91505092959194509250565b6000602082840312600181146129d7576129dc565b600080fd5b5060006129eb848285016127f4565b91505092915050565b6129fd81612dc3565b82525050565b612a0c81612de3565b82525050565b6000612a1d82612db8565b808452612a31816020860160208601612e32565b612a3a81612e65565b602085010191505092915050565b6000612a5382612dad565b808452612a67816020860160208601612e32565b612a7081612e65565b602085010191505092915050565b600081546001811660008114612a9b5760018114612abb57612afc565b607f600283041680865260ff198316602087015260408601935050612afc565b60028204808652602086019550612ad185612d9b565b60005b82811015612af357815481890152600182019150602081019050612ad4565b80880195505050505b505092915050565b600060a0830160008301518482036000860152612b218282612a48565b9150506020830151612b3660208601826129f4565b506040830151612b496040860182612b7a565b506060830151612b5c6060860182612b7a565b506080830151612b6f6080860182612b7a565b508091505092915050565b612b8381612def565b82525050565b6000602082019050612b9e60008301846129f4565b92915050565b6000602082019050612bb96000830184612a03565b92915050565b60006020820190508181036000830152612bd98184612a12565b905092915050565b600060a0820190508181036000830152612bfb8188612a7e565b9050612c0a60208301876129f4565b612c176040830186612b7a565b612c246060830185612b7a565b612c316080830184612b7a565b9695505050505050565b6000610140820190508181036000830152612c56818d612a7e565b90508181036020830152612c6a818c612a7e565b90508181036040830152612c7e818b612a7e565b90508181036060830152612c92818a612a7e565b9050612ca160808301896129f4565b612cae60a0830188612b7a565b612cbb60c0830187612b7a565b612cc860e0830186612b7a565b612cd6610100830185612b7a565b612ce4610120830184612a03565b9b9a5050505050505050505050565b60006020820190508181036000830152612d0d8184612b04565b905092915050565b6000602082019050612d2a6000830184612b7a565b92915050565b6000604051905081810181811067ffffffffffffffff82111760018114612d5657612d5b565b600080fd5b508060405250919050565b600067ffffffffffffffff821160018114612d8057612d85565b600080fd5b50601f19601f8301169050602081019050919050565b60008160005260206000209050919050565b600081519050919050565b600081519050919050565b600073ffffffffffffffffffffffffffffffffffffffff82169050919050565b60008115159050919050565b6000819050919050565b600073ffffffffffffffffffffffffffffffffffffffff82169050919050565b6000819050919050565b82818337600083830152505050565b60005b83811015612e50578082015181840152602081019050612e35565b83811115612e5f576000848401525b50505050565b6000601f19601f83011690509190505600a265627a7a723058209dc7b41294f01e8879573765d985f6151b8990bcd0b22a07b13eb3070b7a61986c6578706572696d656e74616cf50037",
  "source": "pragma solidity ^0.4.19;\npragma experimental ABIEncoderV2;\n\n\ncontract Accounts {\n\tuint numLenders = 0;\n\tuint numStudents = 0;\n\tmapping(address => mapping (address => uint)) public pledges;\n\n\tstruct Student {\n\t\tstring name;\n\t\tstring university;\n\t\tstring country;\n\t\tstring photourl;\n\t\taddress studentAccount;\n\t\tuint minimumToRaise;\n\t\tuint totalRaised;\n\t\tuint idx;\n\t\tuint numFunders;\n\t\tbool fundraising;\n\t}\n\t\n\tstruct Lender {\n\t\tstring name;\n\t\taddress acc;\n\t\tuint totalDonated;\n\t\tuint balance;\n\t\tuint idx;\n\t}\n\n\tmapping (address => Student) public studentMap;\n\tStudent[] public slist;\n\t\n\tmapping (address => Lender) public lenderMap;\n\tLender[] public llist;\n\n\tfunction incrementStudent(string name) public returns(string) {\n\t\tnumStudents = numStudents + 1;\n\t\treturn name;\n\t}\n\n\tfunction addStudent(string sName, string uni, string country, string photo)\n\t\tpublic {\n\t\tvar sNew = Student({\n\t\t\tname: sName,\n\t\t\tuniversity: uni,\n\t\t\tstudentAccount: msg.sender,\n\t\t\tphotourl: photo,\n\t\t\tcountry: country,\n\t\t\tminimumToRaise: 0,\n\t\t\ttotalRaised: 0,\n\t\t\tnumFunders: 0,\n\t\t\tidx: numStudents,\n\t\t\tfundraising: false\n\t\t});\n\n\t\tstudentMap[msg.sender] = sNew;\n\t\tslist.push(sNew);\n\n\t\tnumStudents += 1;\n\n\t}\n\n\tfunction startFundraising(uint fundGoal) public{\n\t\taddress curStudent = msg.sender;\n\t\tuint stIdx = studentMap[curStudent].idx;\n\t\tstudentMap[curStudent].fundraising = true;\n\t\tstudentMap[curStudent].minimumToRaise = fundGoal;\n\t\tslist[stIdx] = studentMap[curStudent];\n\t}\n\t\n\tfunction addLender(string lName)\n\t\tpublic returns (Lender){\n\t\tvar lNew = Lender({\n\t\t\tname: lName,\n\t\t\tacc: msg.sender,\n\t\t\tbalance: msg.sender.balance,\n\t\t\ttotalDonated: 0,\n\t\t\tidx: numLenders\n\t\t});\n\n\t\tlenderMap[msg.sender] = lNew;\n\t\tllist.push(lNew);\n\n\t\tnumLenders += 1;\n\n\t\treturn lNew;\n\n\t}\n\n\tfunction fund(uint sIdx) public payable {\n\t\taddress stdntAcct = slist[sIdx].studentAccount;\n\t\tuint amount = msg.value;\n\t\trequire(lenderMap[msg.sender].balance >= amount);\n\t\trequire(studentMap[stdntAcct].fundraising);\n\t\tuint lIdx = lenderMap[msg.sender].idx;\n\t\tpledges[msg.sender][stdntAcct] += amount;\n\t\tstudentMap[stdntAcct].numFunders += 1;\n\t\tstudentMap[stdntAcct].totalRaised += amount;\n\t\tlenderMap[msg.sender].balance -= amount;\n\t\tlenderMap[msg.sender].totalDonated += amount;\n\n\t\tllist[lIdx] = lenderMap[msg.sender];\n\t\tslist[sIdx] = studentMap[stdntAcct];\n\n\t\tcheckGoalReached(stdntAcct);\n\t}\n\t\n\tfunction checkGoalReached(address stdntAcct) public {\n\t\tif(studentMap[stdntAcct].totalRaised >= studentMap[stdntAcct].minimumToRaise){\n\t\t\tstudentMap[stdntAcct].fundraising = false;\n\t\t\tuint curIdx = studentMap[stdntAcct].idx;\n\t\t\tslist[curIdx] = studentMap[stdntAcct];\n\t\t}\n\t}\n\n\t//Method for students to make purchases using money in escrow.\n\tfunction withdraw(uint amtNeeded) public {\n\t\taddress beneficiary = msg.sender;\n\t\trequire(!studentMap[beneficiary].fundraising);\n\t\trequire(studentMap[beneficiary].totalRaised >= amtNeeded);\n\t\tuint stIdx = studentMap[beneficiary].idx;\n\t\tstudentMap[beneficiary].totalRaised -= amtNeeded;\n\t\tslist[stIdx] = studentMap[beneficiary];\n\n\t\tbeneficiary.transfer(amtNeeded);\n\t}\n\t\n\n\t\n\t//function listStudents() public returns(Student[]) { return slist; }\n\n\t/* hideos but :) */\n\n\tfunction getStudentNameIdx(uint idx) public view returns(string) { return slist[idx].name; }\n\tfunction getStudentUniIdx(uint idx) public view returns(string) { return slist[idx].university; }\n\tfunction getStudentCountryIdx(uint idx) public view returns(string) { return slist[idx].country; }\n\tfunction getStudentPhotoURL(uint idx) public view returns(string) { return slist[idx].photourl; }\n\tfunction getStudentAccIdx(uint idx) public view returns(address) { return slist[idx].studentAccount; }\n\tfunction getStudentMinReqIdx(uint idx) public view returns(uint) { return slist[idx].minimumToRaise; }\n\tfunction getStudentRaisedIdx(uint idx) public view returns(uint) { return slist[idx].totalRaised; }\n\tfunction getStudentFundraisingIdx(uint idx) public view returns(bool) { return slist[idx].fundraising; }\n\tfunction getNumStudentFundersIdx(uint idx) public view returns(uint) { return slist[idx].numFunders; }\n\t//function listStudents() public returns(Student[]) { return slist; }\n\n\tfunction getStudentNameByAddress() public view returns(string) {return studentMap[msg.sender].name; }\n\tfunction getStudentIdxByAddress() public view returns(uint) {return studentMap[msg.sender].idx; }\n\t\n\tfunction getLenderNameByAddress() public view returns(string) { return lenderMap[msg.sender].name; }\n\tfunction getLenderIdxByAddress() public view returns(uint) { return lenderMap[msg.sender].idx; }\n\n\tfunction getStudentCount() public view returns(uint) { return numStudents; }\n\tfunction gitLenderCount() public view returns(uint) { return numLenders; }\n\tfunction getLenderBalanceIdx(uint lidx) public view returns(uint) {return llist[lidx].balance;}\n\n\tfunction getContractBalance() public view returns(uint) {return this.balance;}\n\t\n}\n",
  "sourcePath": "/Users/talaltoukan/Documents/Blockchain/StudentLoanDApp/contracts/Accounts.sol",
  "compiler": {
    "name": "solc",
    "version": "0.4.19+commit.c4cbbb05.Emscripten.clang"
  },
  "schemaVersion": "2.0.0",
  "updatedAt": "2018-04-03T19:13:56.001Z"
}