{
  "contractName": "DebtRegistry",
  "abi": [
    {
      "constant": false,
      "inputs": [],
      "name": "unpause",
      "outputs": [],
      "payable": false,
      "stateMutability": "nonpayable",
      "type": "function"
    },
    {
      "constant": true,
      "inputs": [],
      "name": "paused",
      "outputs": [
        {
          "name": "",
          "type": "bool"
        }
      ],
      "payable": false,
      "stateMutability": "view",
      "type": "function"
    },
    {
      "constant": false,
      "inputs": [],
      "name": "pause",
      "outputs": [],
      "payable": false,
      "stateMutability": "nonpayable",
      "type": "function"
    },
    {
      "constant": true,
      "inputs": [],
      "name": "owner",
      "outputs": [
        {
          "name": "",
          "type": "address"
        }
      ],
      "payable": false,
      "stateMutability": "view",
      "type": "function"
    },
    {
      "constant": false,
      "inputs": [
        {
          "name": "newOwner",
          "type": "address"
        }
      ],
      "name": "transferOwnership",
      "outputs": [],
      "payable": false,
      "stateMutability": "nonpayable",
      "type": "function"
    },
    {
      "anonymous": false,
      "inputs": [
        {
          "indexed": true,
          "name": "issuanceHash",
          "type": "bytes32"
        },
        {
          "indexed": true,
          "name": "beneficiary",
          "type": "address"
        },
        {
          "indexed": true,
          "name": "underwriter",
          "type": "address"
        },
        {
          "indexed": false,
          "name": "underwriterRiskRating",
          "type": "uint256"
        },
        {
          "indexed": false,
          "name": "termsContract",
          "type": "address"
        },
        {
          "indexed": false,
          "name": "termsContractParameters",
          "type": "bytes32"
        }
      ],
      "name": "LogInsertEntry",
      "type": "event"
    },
    {
      "anonymous": false,
      "inputs": [
        {
          "indexed": true,
          "name": "issuanceHash",
          "type": "bytes32"
        },
        {
          "indexed": true,
          "name": "previousBeneficiary",
          "type": "address"
        },
        {
          "indexed": true,
          "name": "newBeneficiary",
          "type": "address"
        }
      ],
      "name": "LogModifyEntryBeneficiary",
      "type": "event"
    },
    {
      "anonymous": false,
      "inputs": [
        {
          "indexed": false,
          "name": "agent",
          "type": "address"
        }
      ],
      "name": "LogAddAuthorizedInsertAgent",
      "type": "event"
    },
    {
      "anonymous": false,
      "inputs": [
        {
          "indexed": false,
          "name": "agent",
          "type": "address"
        }
      ],
      "name": "LogAddAuthorizedEditAgent",
      "type": "event"
    },
    {
      "anonymous": false,
      "inputs": [
        {
          "indexed": false,
          "name": "agent",
          "type": "address"
        }
      ],
      "name": "LogRevokeInsertAgentAuthorization",
      "type": "event"
    },
    {
      "anonymous": false,
      "inputs": [
        {
          "indexed": false,
          "name": "agent",
          "type": "address"
        }
      ],
      "name": "LogRevokeEditAgentAuthorization",
      "type": "event"
    },
    {
      "anonymous": false,
      "inputs": [],
      "name": "Pause",
      "type": "event"
    },
    {
      "anonymous": false,
      "inputs": [],
      "name": "Unpause",
      "type": "event"
    },
    {
      "anonymous": false,
      "inputs": [
        {
          "indexed": true,
          "name": "previousOwner",
          "type": "address"
        },
        {
          "indexed": true,
          "name": "newOwner",
          "type": "address"
        }
      ],
      "name": "OwnershipTransferred",
      "type": "event"
    },
    {
      "constant": false,
      "inputs": [
        {
          "name": "_version",
          "type": "address"
        },
        {
          "name": "_beneficiary",
          "type": "address"
        },
        {
          "name": "_debtor",
          "type": "address"
        },
        {
          "name": "_underwriter",
          "type": "address"
        },
        {
          "name": "_underwriterRiskRating",
          "type": "uint256"
        },
        {
          "name": "_termsContract",
          "type": "address"
        },
        {
          "name": "_termsContractParameters",
          "type": "bytes32"
        },
        {
          "name": "_salt",
          "type": "uint256"
        }
      ],
      "name": "insert",
      "outputs": [
        {
          "name": "_issuanceHash",
          "type": "bytes32"
        }
      ],
      "payable": false,
      "stateMutability": "nonpayable",
      "type": "function"
    },
    {
      "constant": false,
      "inputs": [
        {
          "name": "issuanceHash",
          "type": "bytes32"
        },
        {
          "name": "newBeneficiary",
          "type": "address"
        }
      ],
      "name": "modifyBeneficiary",
      "outputs": [],
      "payable": false,
      "stateMutability": "nonpayable",
      "type": "function"
    },
    {
      "constant": false,
      "inputs": [
        {
          "name": "agent",
          "type": "address"
        }
      ],
      "name": "addAuthorizedInsertAgent",
      "outputs": [],
      "payable": false,
      "stateMutability": "nonpayable",
      "type": "function"
    },
    {
      "constant": false,
      "inputs": [
        {
          "name": "agent",
          "type": "address"
        }
      ],
      "name": "addAuthorizedEditAgent",
      "outputs": [],
      "payable": false,
      "stateMutability": "nonpayable",
      "type": "function"
    },
    {
      "constant": false,
      "inputs": [
        {
          "name": "agent",
          "type": "address"
        }
      ],
      "name": "revokeInsertAgentAuthorization",
      "outputs": [],
      "payable": false,
      "stateMutability": "nonpayable",
      "type": "function"
    },
    {
      "constant": false,
      "inputs": [
        {
          "name": "agent",
          "type": "address"
        }
      ],
      "name": "revokeEditAgentAuthorization",
      "outputs": [],
      "payable": false,
      "stateMutability": "nonpayable",
      "type": "function"
    },
    {
      "constant": true,
      "inputs": [
        {
          "name": "issuanceHash",
          "type": "bytes32"
        }
      ],
      "name": "get",
      "outputs": [
        {
          "name": "",
          "type": "address"
        },
        {
          "name": "",
          "type": "address"
        },
        {
          "name": "",
          "type": "address"
        },
        {
          "name": "",
          "type": "uint256"
        },
        {
          "name": "",
          "type": "address"
        },
        {
          "name": "",
          "type": "bytes32"
        },
        {
          "name": "",
          "type": "uint256"
        }
      ],
      "payable": false,
      "stateMutability": "view",
      "type": "function"
    },
    {
      "constant": true,
      "inputs": [
        {
          "name": "issuanceHash",
          "type": "bytes32"
        }
      ],
      "name": "getBeneficiary",
      "outputs": [
        {
          "name": "",
          "type": "address"
        }
      ],
      "payable": false,
      "stateMutability": "view",
      "type": "function"
    },
    {
      "constant": true,
      "inputs": [
        {
          "name": "issuanceHash",
          "type": "bytes32"
        }
      ],
      "name": "getTermsContract",
      "outputs": [
        {
          "name": "",
          "type": "address"
        }
      ],
      "payable": false,
      "stateMutability": "view",
      "type": "function"
    },
    {
      "constant": true,
      "inputs": [
        {
          "name": "issuanceHash",
          "type": "bytes32"
        }
      ],
      "name": "getTermsContractParameters",
      "outputs": [
        {
          "name": "",
          "type": "bytes32"
        }
      ],
      "payable": false,
      "stateMutability": "view",
      "type": "function"
    },
    {
      "constant": true,
      "inputs": [
        {
          "name": "issuanceHash",
          "type": "bytes32"
        }
      ],
      "name": "getTerms",
      "outputs": [
        {
          "name": "",
          "type": "address"
        },
        {
          "name": "",
          "type": "bytes32"
        }
      ],
      "payable": false,
      "stateMutability": "view",
      "type": "function"
    },
    {
      "constant": true,
      "inputs": [
        {
          "name": "issuanceHash",
          "type": "bytes32"
        }
      ],
      "name": "getIssuanceBlockTimestamp",
      "outputs": [
        {
          "name": "timestamp",
          "type": "uint256"
        }
      ],
      "payable": false,
      "stateMutability": "view",
      "type": "function"
    },
    {
      "constant": true,
      "inputs": [],
      "name": "getAuthorizedInsertAgents",
      "outputs": [
        {
          "name": "",
          "type": "address[]"
        }
      ],
      "payable": false,
      "stateMutability": "view",
      "type": "function"
    },
    {
      "constant": true,
      "inputs": [],
      "name": "getAuthorizedEditAgents",
      "outputs": [
        {
          "name": "",
          "type": "address[]"
        }
      ],
      "payable": false,
      "stateMutability": "view",
      "type": "function"
    }
  ],
  "bytecode": "0x606060405260008060146101000a81548160ff021916908315150217905550336000806101000a81548173ffffffffffffffffffffffffffffffffffffffff021916908373ffffffffffffffffffffffffffffffffffffffff160217905550611df98061006d6000396000f300606060405260043610610107576000357c0100000000000000000000000000000000000000000000000000000000900463ffffffff168063314a522e1461010c5780633f4ba83a1461014f57806342cc6b04146101645780635969549e1461019d5780635c975abb146101e357806364a666f2146102105780636be39bda1461027a5780638456cb59146102f05780638da5cb5b146103055780638eaa6ac01461035a5780639329939514610477578063ad655998146104b0578063ba20dda4146104e9578063c205e64c14610550578063cf9df5eb14610589578063d69dbf6314610679578063f2fde38b146106b4578063f6f494c9146106ed578063f94df67814610754575b600080fd5b341561011757600080fd5b6101316004808035600019169060200190919050506107be565b60405180826000191660001916815260200191505060405180910390f35b341561015a57600080fd5b6101626107e6565b005b341561016f57600080fd5b61019b600480803573ffffffffffffffffffffffffffffffffffffffff169060200190919050506108a4565b005b34156101a857600080fd5b6101e160048080356000191690602001909190803573ffffffffffffffffffffffffffffffffffffffff16906020019091905050610979565b005b34156101ee57600080fd5b6101f6610b72565b604051808215151515815260200191505060405180910390f35b341561021b57600080fd5b610223610b85565b6040518080602001828103825283818151815260200191508051906020019060200280838360005b8381101561026657808201518184015260208101905061024b565b505050509050019250505060405180910390f35b341561028557600080fd5b61029f600480803560001916906020019091905050610b9c565b604051808373ffffffffffffffffffffffffffffffffffffffff1673ffffffffffffffffffffffffffffffffffffffff16815260200182600019166000191681526020019250505060405180910390f35b34156102fb57600080fd5b610303610c06565b005b341561031057600080fd5b610318610cc6565b604051808273ffffffffffffffffffffffffffffffffffffffff1673ffffffffffffffffffffffffffffffffffffffff16815260200191505060405180910390f35b341561036557600080fd5b61037f600480803560001916906020019091905050610ceb565b604051808873ffffffffffffffffffffffffffffffffffffffff1673ffffffffffffffffffffffffffffffffffffffff1681526020018773ffffffffffffffffffffffffffffffffffffffff1673ffffffffffffffffffffffffffffffffffffffff1681526020018673ffffffffffffffffffffffffffffffffffffffff1673ffffffffffffffffffffffffffffffffffffffff1681526020018581526020018473ffffffffffffffffffffffffffffffffffffffff1673ffffffffffffffffffffffffffffffffffffffff168152602001836000191660001916815260200182815260200197505050505050505060405180910390f35b341561048257600080fd5b6104ae600480803573ffffffffffffffffffffffffffffffffffffffff16906020019091905050610e68565b005b34156104bb57600080fd5b6104e7600480803573ffffffffffffffffffffffffffffffffffffffff16906020019091905050610f3d565b005b34156104f457600080fd5b61050e600480803560001916906020019091905050611012565b604051808273ffffffffffffffffffffffffffffffffffffffff1673ffffffffffffffffffffffffffffffffffffffff16815260200191505060405180910390f35b341561055b57600080fd5b610587600480803573ffffffffffffffffffffffffffffffffffffffff1690602001909190505061105a565b005b341561059457600080fd5b61065b600480803573ffffffffffffffffffffffffffffffffffffffff1690602001909190803573ffffffffffffffffffffffffffffffffffffffff1690602001909190803573ffffffffffffffffffffffffffffffffffffffff1690602001909190803573ffffffffffffffffffffffffffffffffffffffff1690602001909190803590602001909190803573ffffffffffffffffffffffffffffffffffffffff169060200190919080356000191690602001909190803590602001909190505061112f565b60405180826000191660001916815260200191505060405180910390f35b341561068457600080fd5b61069e6004808035600019169060200190919050506114fe565b6040518082815260200191505060405180910390f35b34156106bf57600080fd5b6106eb600480803573ffffffffffffffffffffffffffffffffffffffff16906020019091905050611526565b005b34156106f857600080fd5b61071260048080356000191690602001909190505061167b565b604051808273ffffffffffffffffffffffffffffffffffffffff1673ffffffffffffffffffffffffffffffffffffffff16815260200191505060405180910390f35b341561075f57600080fd5b6107676116c3565b6040518080602001828103825283818151815260200191508051906020019060200280838360005b838110156107aa57808201518184015260208101905061078f565b505050509050019250505060405180910390f35b6000600160008360001916600019168152602001908152602001600020600501549050919050565b6000809054906101000a900473ffffffffffffffffffffffffffffffffffffffff1673ffffffffffffffffffffffffffffffffffffffff163373ffffffffffffffffffffffffffffffffffffffff1614151561084157600080fd5b600060149054906101000a900460ff16151561085c57600080fd5b60008060146101000a81548160ff0219169083151502179055507f7805862f689e2f13df9f062ff482ad3ad112aca9e0847911ed832e158c525b3360405160405180910390a1565b6000809054906101000a900473ffffffffffffffffffffffffffffffffffffffff1673ffffffffffffffffffffffffffffffffffffffff163373ffffffffffffffffffffffffffffffffffffffff161415156108ff57600080fd5b6109138160056116da90919063ffffffff16565b7f1adcf3642077febc29ae94e96f4b266cd0014c4499a4ad57e1e6935efaf73c5c81604051808273ffffffffffffffffffffffffffffffffffffffff1673ffffffffffffffffffffffffffffffffffffffff16815260200191505060405180910390a150565b600061098f33600561180290919063ffffffff16565b151561099a57600080fd5b600060149054906101000a900460ff161515156109b657600080fd5b82600073ffffffffffffffffffffffffffffffffffffffff1660016000836000191660001916815260200190815260200160002060010160009054906101000a900473ffffffffffffffffffffffffffffffffffffffff1673ffffffffffffffffffffffffffffffffffffffff1614151515610a3157600080fd5b82600073ffffffffffffffffffffffffffffffffffffffff168173ffffffffffffffffffffffffffffffffffffffff1614151515610a6e57600080fd5b60016000866000191660001916815260200190815260200160002060010160009054906101000a900473ffffffffffffffffffffffffffffffffffffffff1692508360016000876000191660001916815260200190815260200160002060010160006101000a81548173ffffffffffffffffffffffffffffffffffffffff021916908373ffffffffffffffffffffffffffffffffffffffff1602179055508373ffffffffffffffffffffffffffffffffffffffff168373ffffffffffffffffffffffffffffffffffffffff1686600019167f7afbd1e661f2fdce6222afdac74cd28b1847177e232db3d0f0dcf3739e8d809460405160405180910390a45050505050565b600060149054906101000a900460ff1681565b610b8d611ca3565b610b97600261185b565b905090565b60008060016000846000191660001916815260200190815260200160002060040160009054906101000a900473ffffffffffffffffffffffffffffffffffffffff166001600085600019166000191681526020019081526020016000206005015491509150915091565b6000809054906101000a900473ffffffffffffffffffffffffffffffffffffffff1673ffffffffffffffffffffffffffffffffffffffff163373ffffffffffffffffffffffffffffffffffffffff16141515610c6157600080fd5b600060149054906101000a900460ff16151515610c7d57600080fd5b6001600060146101000a81548160ff0219169083151502179055507f6985a02210a168e66602d3235cb6db0e70f92b3ba4d376a33c0f3d9434bff62560405160405180910390a1565b6000809054906101000a900473ffffffffffffffffffffffffffffffffffffffff1681565b600080600080600080600060016000896000191660001916815260200190815260200160002060000160009054906101000a900473ffffffffffffffffffffffffffffffffffffffff16600160008a6000191660001916815260200190815260200160002060010160009054906101000a900473ffffffffffffffffffffffffffffffffffffffff16600160008b6000191660001916815260200190815260200160002060020160009054906101000a900473ffffffffffffffffffffffffffffffffffffffff16600160008c6000191660001916815260200190815260200160002060030154600160008d6000191660001916815260200190815260200160002060040160009054906101000a900473ffffffffffffffffffffffffffffffffffffffff16600160008e6000191660001916815260200190815260200160002060050154600160008f60001916600019168152602001908152602001600020600601549650965096509650965096509650919395979092949650565b6000809054906101000a900473ffffffffffffffffffffffffffffffffffffffff1673ffffffffffffffffffffffffffffffffffffffff163373ffffffffffffffffffffffffffffffffffffffff16141515610ec357600080fd5b610ed78160056118f390919063ffffffff16565b7fd70b180c6a151902a25cf1e39c2d5d75079bb235362289aa42cd258a7e5af92181604051808273ffffffffffffffffffffffffffffffffffffffff1673ffffffffffffffffffffffffffffffffffffffff16815260200191505060405180910390a150565b6000809054906101000a900473ffffffffffffffffffffffffffffffffffffffff1673ffffffffffffffffffffffffffffffffffffffff163373ffffffffffffffffffffffffffffffffffffffff16141515610f9857600080fd5b610fac8160026116da90919063ffffffff16565b7f3742184d7c9c1646421a0b618adffa131109c009b2c9f9fab3c8d890e295e5dd81604051808273ffffffffffffffffffffffffffffffffffffffff1673ffffffffffffffffffffffffffffffffffffffff16815260200191505060405180910390a150565b600060016000836000191660001916815260200190815260200160002060010160009054906101000a900473ffffffffffffffffffffffffffffffffffffffff169050919050565b6000809054906101000a900473ffffffffffffffffffffffffffffffffffffffff1673ffffffffffffffffffffffffffffffffffffffff163373ffffffffffffffffffffffffffffffffffffffff161415156110b557600080fd5b6110c98160026118f390919063ffffffff16565b7fc265a0634721cf43fbe76b8ab5c6f79b59fabfc8056dea60d2f0d2612fc70b1281604051808273ffffffffffffffffffffffffffffffffffffffff1673ffffffffffffffffffffffffffffffffffffffff16815260200191505060405180910390a150565b6000611139611cb7565b600061114f33600261180290919063ffffffff16565b151561115a57600080fd5b600060149054906101000a900460ff1615151561117657600080fd5b89600073ffffffffffffffffffffffffffffffffffffffff168173ffffffffffffffffffffffffffffffffffffffff16141515156111b357600080fd5b60e0604051908101604052808d73ffffffffffffffffffffffffffffffffffffffff1681526020018c73ffffffffffffffffffffffffffffffffffffffff1681526020018a73ffffffffffffffffffffffffffffffffffffffff1681526020018981526020018873ffffffffffffffffffffffffffffffffffffffff16815260200187600019168152602001428152509250611250838b87611b35565b9150600073ffffffffffffffffffffffffffffffffffffffff1660016000846000191660001916815260200190815260200160002060010160009054906101000a900473ffffffffffffffffffffffffffffffffffffffff1673ffffffffffffffffffffffffffffffffffffffff161415156112cb57600080fd5b8260016000846000191660001916815260200190815260200160002060008201518160000160006101000a81548173ffffffffffffffffffffffffffffffffffffffff021916908373ffffffffffffffffffffffffffffffffffffffff16021790555060208201518160010160006101000a81548173ffffffffffffffffffffffffffffffffffffffff021916908373ffffffffffffffffffffffffffffffffffffffff16021790555060408201518160020160006101000a81548173ffffffffffffffffffffffffffffffffffffffff021916908373ffffffffffffffffffffffffffffffffffffffff1602179055506060820151816003015560808201518160040160006101000a81548173ffffffffffffffffffffffffffffffffffffffff021916908373ffffffffffffffffffffffffffffffffffffffff16021790555060a0820151816005019060001916905560c08201518160060155905050826040015173ffffffffffffffffffffffffffffffffffffffff16836020015173ffffffffffffffffffffffffffffffffffffffff1683600019167f10919d8a6bfbd0c46213ad51d6258e42af00bbf36133aada8a058bbe4f4a9240866060015187608001518860a00151604051808481526020018373ffffffffffffffffffffffffffffffffffffffff1673ffffffffffffffffffffffffffffffffffffffff1681526020018260001916600019168152602001935050505060405180910390a481935050505098975050505050505050565b6000600160008360001916600019168152602001908152602001600020600601549050919050565b6000809054906101000a900473ffffffffffffffffffffffffffffffffffffffff1673ffffffffffffffffffffffffffffffffffffffff163373ffffffffffffffffffffffffffffffffffffffff1614151561158157600080fd5b600073ffffffffffffffffffffffffffffffffffffffff168173ffffffffffffffffffffffffffffffffffffffff16141515156115bd57600080fd5b8073ffffffffffffffffffffffffffffffffffffffff166000809054906101000a900473ffffffffffffffffffffffffffffffffffffffff1673ffffffffffffffffffffffffffffffffffffffff167f8be0079c531659141344cd1fd0a4f28419497f9722a3daafe3b4186f6b6457e060405160405180910390a3806000806101000a81548173ffffffffffffffffffffffffffffffffffffffff021916908373ffffffffffffffffffffffffffffffffffffffff16021790555050565b600060016000836000191660001916815260200190815260200160002060040160009054906101000a900473ffffffffffffffffffffffffffffffffffffffff169050919050565b6116cb611ca3565b6116d5600561185b565b905090565b6116e48282611c8e565b15156116ef57600080fd5b60018260000160008373ffffffffffffffffffffffffffffffffffffffff1673ffffffffffffffffffffffffffffffffffffffff16815260200190815260200160002060006101000a81548160ff02191690831515021790555081600201805480600101828161175f9190611d50565b9160005260206000209001600083909190916101000a81548173ffffffffffffffffffffffffffffffffffffffff021916908373ffffffffffffffffffffffffffffffffffffffff1602179055505060018260020180549050038260010160008373ffffffffffffffffffffffffffffffffffffffff1673ffffffffffffffffffffffffffffffffffffffff168152602001908152602001600020819055505050565b60008260000160008373ffffffffffffffffffffffffffffffffffffffff1673ffffffffffffffffffffffffffffffffffffffff16815260200190815260200160002060009054906101000a900460ff16905092915050565b611863611ca3565b816002018054806020026020016040519081016040528092919081815260200182805480156118e757602002820191906000526020600020905b8160009054906101000a900473ffffffffffffffffffffffffffffffffffffffff1673ffffffffffffffffffffffffffffffffffffffff168152602001906001019080831161189d575b50505050509050919050565b60008060006119028585611802565b151561190d57600080fd5b8460010160008573ffffffffffffffffffffffffffffffffffffffff1673ffffffffffffffffffffffffffffffffffffffff16815260200190815260200160002054925060018560020180549050039150846002018281548110151561196f57fe5b906000526020600020900160009054906101000a900473ffffffffffffffffffffffffffffffffffffffff1690508460000160008573ffffffffffffffffffffffffffffffffffffffff1673ffffffffffffffffffffffffffffffffffffffff16815260200190815260200160002060006101000a81549060ff0219169055808560020184815481101515611a0057fe5b906000526020600020900160006101000a81548173ffffffffffffffffffffffffffffffffffffffff021916908373ffffffffffffffffffffffffffffffffffffffff160217905550828560010160008373ffffffffffffffffffffffffffffffffffffffff1673ffffffffffffffffffffffffffffffffffffffff168152602001908152602001600020819055508460010160008573ffffffffffffffffffffffffffffffffffffffff1673ffffffffffffffffffffffffffffffffffffffff168152602001908152602001600020600090558460020182815481101515611ae557fe5b906000526020600020900160006101000a81549073ffffffffffffffffffffffffffffffffffffffff021916905560018560020181818054905003915081611b2d9190611d7c565b505050505050565b60008360000151838560400151866060015187608001518860a0015187604051808873ffffffffffffffffffffffffffffffffffffffff1673ffffffffffffffffffffffffffffffffffffffff166c010000000000000000000000000281526014018773ffffffffffffffffffffffffffffffffffffffff1673ffffffffffffffffffffffffffffffffffffffff166c010000000000000000000000000281526014018673ffffffffffffffffffffffffffffffffffffffff1673ffffffffffffffffffffffffffffffffffffffff166c010000000000000000000000000281526014018581526020018473ffffffffffffffffffffffffffffffffffffffff1673ffffffffffffffffffffffffffffffffffffffff166c010000000000000000000000000281526014018360001916600019168152602001828152602001975050505050505050604051809103902090509392505050565b6000611c9a8383611802565b15905092915050565b602060405190810160405280600081525090565b60e060405190810160405280600073ffffffffffffffffffffffffffffffffffffffff168152602001600073ffffffffffffffffffffffffffffffffffffffff168152602001600073ffffffffffffffffffffffffffffffffffffffff16815260200160008152602001600073ffffffffffffffffffffffffffffffffffffffff16815260200160008019168152602001600081525090565b815481835581811511611d7757818360005260206000209182019101611d769190611da8565b5b505050565b815481835581811511611da357818360005260206000209182019101611da29190611da8565b5b505050565b611dca91905b80821115611dc6576000816000905550600101611dae565b5090565b905600a165627a7a723058205dbfd1ea7b9b5866b2448889565a731978d1204c2e6121f378e39638d3e7fe2d0029",
  "source": "/*\n\n  Copyright 2017 Dharma Labs Inc.\n\n  Licensed under the Apache License, Version 2.0 (the \"License\");\n  you may not use this file except in compliance with the License.\n  You may obtain a copy of the License at\n\n    http://www.apache.org/licenses/LICENSE-2.0\n\n  Unless required by applicable law or agreed to in writing, software\n  distributed under the License is distributed on an \"AS IS\" BASIS,\n  WITHOUT WARRANTIES OR CONDITIONS OF ANY KIND, either express or implied.\n  See the License for the specific language governing permissions and\n  limitations under the License.\n\n*/\n\npragma solidity 0.4.19;\n\nimport \"./libraries/PermissionsLib.sol\";\nimport \"zeppelin-solidity/contracts/math/SafeMath.sol\";\nimport \"zeppelin-solidity/contracts/lifecycle/Pausable.sol\";\n\n\n/**\n * The DebtRegistry stores the parameters and beneficiaries of all debt agreements in\n * Dharma protocol.  It authorizes a limited number of agents to\n * perform mutations on it -- those agents can be changed at any\n * time by the contract's owner.\n *\n * Author: Nadav Hollander -- Github: nadavhollander\n */\ncontract DebtRegistry is Pausable {\n    using SafeMath for uint;\n    using PermissionsLib for PermissionsLib.Permissions;\n\n    struct Entry {\n        address version;\n        address beneficiary;\n        address underwriter;\n        uint underwriterRiskRating;\n        address termsContract;\n        bytes32 termsContractParameters;\n        uint issuanceBlockTimestamp;\n    }\n\n    // Primary registry mapping issuance hashes to their corresponding entries\n    mapping (bytes32 => Entry) internal registry;\n\n    PermissionsLib.Permissions internal entryInsertPermissions;\n    PermissionsLib.Permissions internal entryEditPermissions;\n\n    event LogInsertEntry(\n        bytes32 indexed issuanceHash,\n        address indexed beneficiary,\n        address indexed underwriter,\n        uint underwriterRiskRating,\n        address termsContract,\n        bytes32 termsContractParameters\n    );\n\n    event LogModifyEntryBeneficiary(\n        bytes32 indexed issuanceHash,\n        address indexed previousBeneficiary,\n        address indexed newBeneficiary\n    );\n\n    event LogAddAuthorizedInsertAgent(\n        address agent\n    );\n\n    event LogAddAuthorizedEditAgent(\n        address agent\n    );\n\n    event LogRevokeInsertAgentAuthorization(\n        address agent\n    );\n\n    event LogRevokeEditAgentAuthorization(\n        address agent\n    );\n\n    modifier onlyAuthorizedToInsert() {\n        require(entryInsertPermissions.isAuthorized(msg.sender));\n        _;\n    }\n\n    modifier onlyAuthorizedToEdit() {\n        require(entryEditPermissions.isAuthorized(msg.sender));\n        _;\n    }\n\n    modifier onlyExtantEntry(bytes32 issuanceHash) {\n        require(registry[issuanceHash].beneficiary != address(0));\n        _;\n    }\n\n    modifier nonNullBeneficiary(address beneficiary) {\n        require(beneficiary != address(0));\n        _;\n    }\n\n    /**\n     * Inserts a new entry into the registry, if the entry is valid and sender is\n     * authorized to make 'insert' mutations to the registry.\n     */\n    function insert(\n        address _version,\n        address _beneficiary,\n        address _debtor,\n        address _underwriter,\n        uint _underwriterRiskRating,\n        address _termsContract,\n        bytes32 _termsContractParameters,\n        uint _salt\n    )\n        public\n        onlyAuthorizedToInsert\n        whenNotPaused\n        nonNullBeneficiary(_beneficiary)\n        returns (bytes32 _issuanceHash)\n    {\n        Entry memory entry = Entry(\n            _version,\n            _beneficiary,\n            _underwriter,\n            _underwriterRiskRating,\n            _termsContract,\n            _termsContractParameters,\n            block.timestamp\n        );\n\n        bytes32 issuanceHash = _getIssuanceHash(entry, _debtor, _salt);\n\n        require(registry[issuanceHash].beneficiary == address(0));\n\n        registry[issuanceHash] = entry;\n\n        LogInsertEntry(\n            issuanceHash,\n            entry.beneficiary,\n            entry.underwriter,\n            entry.underwriterRiskRating,\n            entry.termsContract,\n            entry.termsContractParameters\n        );\n\n        return issuanceHash;\n    }\n\n    /**\n     * Modifies the beneficiary of a debt issuance, if the sender\n     * is authorized to make 'modifyBeneficiary' mutations to\n     * the registry.\n     */\n    function modifyBeneficiary(bytes32 issuanceHash, address newBeneficiary)\n        public\n        onlyAuthorizedToEdit\n        whenNotPaused\n        onlyExtantEntry(issuanceHash)\n        nonNullBeneficiary(newBeneficiary)\n    {\n        address previousBeneficiary = registry[issuanceHash].beneficiary;\n\n        registry[issuanceHash].beneficiary = newBeneficiary;\n\n        LogModifyEntryBeneficiary(\n            issuanceHash,\n            previousBeneficiary,\n            newBeneficiary\n        );\n    }\n\n    /**\n     * Adds an address to the list of agents authorized\n     * to make 'insert' mutations to the registry.\n     */\n    function addAuthorizedInsertAgent(address agent)\n        public\n        onlyOwner\n    {\n        entryInsertPermissions.authorize(agent);\n        LogAddAuthorizedInsertAgent(agent);\n    }\n\n    /**\n     * Adds an address to the list of agents authorized\n     * to make 'modifyBeneficiary' mutations to the registry.\n     */\n    function addAuthorizedEditAgent(address agent)\n        public\n        onlyOwner\n    {\n        entryEditPermissions.authorize(agent);\n        LogAddAuthorizedEditAgent(agent);\n    }\n\n    /**\n     * Removes an address from the list of agents authorized\n     * to make 'insert' mutations to the registry.\n     */\n    function revokeInsertAgentAuthorization(address agent)\n        public\n        onlyOwner\n    {\n        entryInsertPermissions.revokeAuthorization(agent);\n        LogRevokeInsertAgentAuthorization(agent);\n    }\n\n    /**\n     * Removes an address from the list of agents authorized\n     * to make 'modifyBeneficiary' mutations to the registry.\n     */\n    function revokeEditAgentAuthorization(address agent)\n        public\n        onlyOwner\n    {\n        entryEditPermissions.revokeAuthorization(agent);\n        LogRevokeEditAgentAuthorization(agent);\n    }\n\n    /**\n     * Returns the parameters of a debt issuance in the registry\n     */\n    function get(bytes32 issuanceHash)\n        public\n        view\n        returns(address, address, address, uint, address, bytes32, uint)\n    {\n        return (\n            registry[issuanceHash].version,\n            registry[issuanceHash].beneficiary,\n            registry[issuanceHash].underwriter,\n            registry[issuanceHash].underwriterRiskRating,\n            registry[issuanceHash].termsContract,\n            registry[issuanceHash].termsContractParameters,\n            registry[issuanceHash].issuanceBlockTimestamp\n        );\n    }\n\n    /**\n     * Returns the beneficiary of a given issuance\n     */\n    function getBeneficiary(bytes32 issuanceHash)\n        public\n        view\n        returns(address)\n    {\n        return registry[issuanceHash].beneficiary;\n    }\n\n    /**\n     * Returns the terms contract address of a given issuance\n     */\n    function getTermsContract(bytes32 issuanceHash)\n        public\n        view\n        returns (address)\n    {\n        return registry[issuanceHash].termsContract;\n    }\n\n    /**\n     * Returns the terms contract parameters of a given issuance\n     */\n    function getTermsContractParameters(bytes32 issuanceHash)\n        public\n        view\n        returns (bytes32)\n    {\n        return registry[issuanceHash].termsContractParameters;\n    }\n\n    /**\n     * Returns a tuple of the terms contract and its associated parameters\n     * for a given issuance\n     */\n    function getTerms(bytes32 issuanceHash)\n        public\n        view\n        returns(address, bytes32)\n    {\n        return (\n            registry[issuanceHash].termsContract,\n            registry[issuanceHash].termsContractParameters\n        );\n    }\n\n    /**\n     * Returns the timestamp of the block at which a debt agreement was issued.\n     */\n    function getIssuanceBlockTimestamp(bytes32 issuanceHash)\n        public\n        view\n        returns (uint timestamp)\n    {\n        return registry[issuanceHash].issuanceBlockTimestamp;\n    }\n\n    /**\n     * Returns the list of agents authorized to make 'insert' mutations\n     */\n    function getAuthorizedInsertAgents()\n        public\n        view\n        returns(address[])\n    {\n        return entryInsertPermissions.getAuthorizedAgents();\n    }\n\n    /**\n     * Returns the list of agents authorized to make 'modifyBeneficiary' mutations\n     */\n    function getAuthorizedEditAgents()\n        public\n        view\n        returns(address[])\n    {\n        return entryEditPermissions.getAuthorizedAgents();\n    }\n\n\n    /**\n     * Helper function for computing the hash of a given issuance.\n     */\n    function _getIssuanceHash(Entry _entry, address _debtor, uint _salt)\n        internal\n        pure\n        returns(bytes32)\n    {\n        return keccak256(\n            _entry.version,\n            _debtor,\n            _entry.underwriter,\n            _entry.underwriterRiskRating,\n            _entry.termsContract,\n            _entry.termsContractParameters,\n            _salt\n        );\n    }\n}\n",
  "sourcePath": "/Users/talaltoukan/Documents/Blockchain/StudentLoanDApp/contracts/DebtRegistry.sol",
  "compiler": {
    "name": "solc",
    "version": "0.4.19+commit.c4cbbb05.Emscripten.clang"
  },
  "schemaVersion": "2.0.0",
  "updatedAt": "2018-04-04T02:48:15.194Z"
}