{
  "contractName": "MockDebtToken",
  "abi": [
    {
      "constant": true,
      "inputs": [
        {
          "name": "functionName",
          "type": "string"
        },
        {
          "name": "argsSignature",
          "type": "bytes32"
        }
      ],
      "name": "getMockReturnValue",
      "outputs": [
        {
          "name": "_mockReturnValue",
          "type": "bytes32"
        }
      ],
      "payable": false,
      "stateMutability": "view",
      "type": "function"
    },
    {
      "constant": false,
      "inputs": [
        {
          "name": "functionName",
          "type": "string"
        },
        {
          "name": "argsSignature",
          "type": "bytes32"
        },
        {
          "name": "returnValue",
          "type": "bytes32"
        }
      ],
      "name": "mockReturnValue",
      "outputs": [],
      "payable": false,
      "stateMutability": "nonpayable",
      "type": "function"
    },
    {
      "constant": false,
      "inputs": [],
      "name": "reset",
      "outputs": [],
      "payable": false,
      "stateMutability": "nonpayable",
      "type": "function"
    },
    {
      "constant": false,
      "inputs": [
        {
          "name": "_version",
          "type": "address"
        },
        {
          "name": "_beneficiary",
          "type": "address"
        },
        {
          "name": "_debtor",
          "type": "address"
        },
        {
          "name": "_underwriter",
          "type": "address"
        },
        {
          "name": "_underwriterRiskRating",
          "type": "uint256"
        },
        {
          "name": "_termsContract",
          "type": "address"
        },
        {
          "name": "_termsContractParameters",
          "type": "bytes32"
        },
        {
          "name": "_salt",
          "type": "uint256"
        }
      ],
      "name": "create",
      "outputs": [
        {
          "name": "_tokenId",
          "type": "uint256"
        }
      ],
      "payable": false,
      "stateMutability": "nonpayable",
      "type": "function"
    },
    {
      "constant": false,
      "inputs": [
        {
          "name": "_tokenId",
          "type": "uint256"
        },
        {
          "name": "_zeroExExchangeContract",
          "type": "address"
        },
        {
          "name": "_zeroExOrderAddresses",
          "type": "address[5]"
        },
        {
          "name": "_zeroExOrderValues",
          "type": "uint256[6]"
        },
        {
          "name": "_v",
          "type": "uint8"
        },
        {
          "name": "_r",
          "type": "bytes32"
        },
        {
          "name": "_s",
          "type": "bytes32"
        }
      ],
      "name": "brokerZeroExOrder",
      "outputs": [],
      "payable": false,
      "stateMutability": "nonpayable",
      "type": "function"
    },
    {
      "constant": false,
      "inputs": [
        {
          "name": "_tokenId",
          "type": "uint256"
        }
      ],
      "name": "mockCreateReturnValue",
      "outputs": [],
      "payable": false,
      "stateMutability": "nonpayable",
      "type": "function"
    },
    {
      "constant": true,
      "inputs": [
        {
          "name": "_version",
          "type": "address"
        },
        {
          "name": "_beneficiary",
          "type": "address"
        },
        {
          "name": "_debtor",
          "type": "address"
        },
        {
          "name": "_underwriter",
          "type": "address"
        },
        {
          "name": "_underwriterRiskRating",
          "type": "uint256"
        },
        {
          "name": "_termsContract",
          "type": "address"
        },
        {
          "name": "_termsContractParameters",
          "type": "bytes32"
        },
        {
          "name": "_salt",
          "type": "uint256"
        }
      ],
      "name": "wasCreateCalledWith",
      "outputs": [
        {
          "name": "wasCalled",
          "type": "bool"
        }
      ],
      "payable": false,
      "stateMutability": "view",
      "type": "function"
    },
    {
      "constant": true,
      "inputs": [
        {
          "name": "_tokenId",
          "type": "uint256"
        },
        {
          "name": "_zeroExExchangeContract",
          "type": "address"
        },
        {
          "name": "_zeroExOrderAddresses",
          "type": "address[5]"
        },
        {
          "name": "_zeroExOrderValues",
          "type": "uint256[6]"
        },
        {
          "name": "_v",
          "type": "uint8"
        },
        {
          "name": "_r",
          "type": "bytes32"
        },
        {
          "name": "_s",
          "type": "bytes32"
        }
      ],
      "name": "wasBrokerZeroExOrderCalledWith",
      "outputs": [
        {
          "name": "wasCalled",
          "type": "bool"
        }
      ],
      "payable": false,
      "stateMutability": "view",
      "type": "function"
    },
    {
      "constant": true,
      "inputs": [
        {
          "name": "_tokenId",
          "type": "uint256"
        },
        {
          "name": "_zeroExExchangeContract",
          "type": "address"
        },
        {
          "name": "_zeroExOrderAddresses",
          "type": "address[5]"
        },
        {
          "name": "_zeroExOrderValues",
          "type": "uint256[6]"
        },
        {
          "name": "_v",
          "type": "uint8"
        },
        {
          "name": "_r",
          "type": "bytes32"
        },
        {
          "name": "_s",
          "type": "bytes32"
        }
      ],
      "name": "getBrokerZeroExCallSignature",
      "outputs": [
        {
          "name": "callSig",
          "type": "bytes32"
        }
      ],
      "payable": false,
      "stateMutability": "pure",
      "type": "function"
    },
    {
      "constant": false,
      "inputs": [
        {
          "name": "_to",
          "type": "address"
        },
        {
          "name": "_tokenId",
          "type": "uint256"
        }
      ],
      "name": "transfer",
      "outputs": [
        {
          "name": "success",
          "type": "bool"
        }
      ],
      "payable": false,
      "stateMutability": "nonpayable",
      "type": "function"
    },
    {
      "constant": true,
      "inputs": [
        {
          "name": "_to",
          "type": "address"
        },
        {
          "name": "_tokenId",
          "type": "uint256"
        }
      ],
      "name": "wasTransferCalledWith",
      "outputs": [
        {
          "name": "wasCalled",
          "type": "bool"
        }
      ],
      "payable": false,
      "stateMutability": "view",
      "type": "function"
    },
    {
      "constant": true,
      "inputs": [
        {
          "name": "_tokenId",
          "type": "uint256"
        }
      ],
      "name": "ownerOf",
      "outputs": [
        {
          "name": "_owner",
          "type": "address"
        }
      ],
      "payable": false,
      "stateMutability": "view",
      "type": "function"
    },
    {
      "constant": false,
      "inputs": [
        {
          "name": "_tokenId",
          "type": "uint256"
        },
        {
          "name": "_owner",
          "type": "address"
        }
      ],
      "name": "mockOwnerOfFor",
      "outputs": [],
      "payable": false,
      "stateMutability": "nonpayable",
      "type": "function"
    }
  ],
  "bytecode": "0x6060604052341561000f57600080fd5b611aa28061001e6000396000f3006060604052600436106100c4576000357c0100000000000000000000000000000000000000000000000000000000900463ffffffff168062faf107146100c95780630e81bd9f1461018957806313101858146101e357806313d2a2ab14610269578063491aa112146102ab5780636352211e1461038757806380da20d4146103ea57806399f1050114610461578063a9059cbb14610549578063b742f563146105a3578063d826f88f1461068f578063d9151ab5146106a4578063e18b21261461077c575b600080fd5b34156100d457600080fd5b610187600480803590602001909190803573ffffffffffffffffffffffffffffffffffffffff16906020019091908060a001906005806020026040519081016040528092919082600560200280828437820191505050505091908060c00190600680602002604051908101604052809291908260066020028082843782019150505050509190803560ff16906020019091908035600019169060200190919080356000191690602001909190505061079f565b005b341561019457600080fd5b6101c9600480803573ffffffffffffffffffffffffffffffffffffffff169060200190919080359060200190919050506108ef565b604051808215151515815260200191505060405180910390f35b34156101ee57600080fd5b61024b600480803590602001908201803590602001908080601f0160208091040260200160405190810160405280939291908181526020018383808284378201915050505050509190803560001916906020019091905050610990565b60405180826000191660001916815260200191505060405180910390f35b341561027457600080fd5b6102a9600480803590602001909190803573ffffffffffffffffffffffffffffffffffffffff16906020019091905050610a1f565b005b34156102b657600080fd5b610369600480803590602001909190803573ffffffffffffffffffffffffffffffffffffffff16906020019091908060a001906005806020026040519081016040528092919082600560200280828437820191505050505091908060c00190600680602002604051908101604052809291908260066020028082843782019150505050509190803560ff169060200190919080356000191690602001909190803560001916906020019091905050610a91565b60405180826000191660001916815260200191505060405180910390f35b341561039257600080fd5b6103a86004808035906020019091905050610ba9565b604051808273ffffffffffffffffffffffffffffffffffffffff1673ffffffffffffffffffffffffffffffffffffffff16815260200191505060405180910390f35b34156103f557600080fd5b61045f600480803590602001908201803590602001908080601f016020809104026020016040519081016040528093929190818152602001838380828437820191505050505050919080356000191690602001909190803560001916906020019091905050610c0a565b005b341561046c57600080fd5b610533600480803573ffffffffffffffffffffffffffffffffffffffff1690602001909190803573ffffffffffffffffffffffffffffffffffffffff1690602001909190803573ffffffffffffffffffffffffffffffffffffffff1690602001909190803573ffffffffffffffffffffffffffffffffffffffff1690602001909190803590602001909190803573ffffffffffffffffffffffffffffffffffffffff1690602001909190803560001916906020019091908035906020019091905050610d34565b6040518082815260200191505060405180910390f35b341561055457600080fd5b610589600480803573ffffffffffffffffffffffffffffffffffffffff16906020019091908035906020019091905050610f4b565b604051808215151515815260200191505060405180910390f35b34156105ae57600080fd5b610675600480803573ffffffffffffffffffffffffffffffffffffffff1690602001909190803573ffffffffffffffffffffffffffffffffffffffff1690602001909190803573ffffffffffffffffffffffffffffffffffffffff1690602001909190803573ffffffffffffffffffffffffffffffffffffffff1690602001909190803590602001909190803573ffffffffffffffffffffffffffffffffffffffff1690602001909190803560001916906020019091908035906020019091905050610fee565b604051808215151515815260200191505060405180910390f35b341561069a57600080fd5b6106a26111b9565b005b34156106af57600080fd5b610762600480803590602001909190803573ffffffffffffffffffffffffffffffffffffffff16906020019091908060a001906005806020026040519081016040528092919082600560200280828437820191505050505091908060c00190600680602002604051908101604052809291908260066020028082843782019150505050509190803560ff1690602001909190803560001916906020019091908035600019169060200190919050506114b0565b604051808215151515815260200191505060405180910390f35b341561078757600080fd5b61079d6004808035906020019091905050611606565b005b6108e66040805190810160405280601181526020017f62726f6b65725a65726f45784f7264657200000000000000000000000000000081525088888888888888604051808881526020018773ffffffffffffffffffffffffffffffffffffffff1673ffffffffffffffffffffffffffffffffffffffff166c0100000000000000000000000002815260140186600560200280838360005b83811015610851578082015181840152602081019050610836565b5050505090500185600660200280838360005b8381101561087f578082015181840152602081019050610864565b505050509050018460ff1660ff167f0100000000000000000000000000000000000000000000000000000000000000028152600101836000191660001916815260200182600019166000191681526020019750505050505050506040518091039020611650565b50505050505050565b60006109886040805190810160405280600881526020017f7472616e736665720000000000000000000000000000000000000000000000008152508484604051808373ffffffffffffffffffffffffffffffffffffffff1673ffffffffffffffffffffffffffffffffffffffff166c01000000000000000000000000028152601401828152602001925050506040518091039020611789565b905092915050565b60006001836040518082805190602001908083835b6020831015156109ca57805182526020820191506020810190506020830392506109a5565b6001836020036101000a03801982511681845116808217855250505050505090500191505090815260200160405180910390206000836000191660001916815260200190815260200160002054905092915050565b610a8d6040805190810160405280600781526020017f6f776e65724f6600000000000000000000000000000000000000000000000000815250836040518082815260200191505060405180910390208373ffffffffffffffffffffffffffffffffffffffff16600102610c0a565b5050565b600087878787878787604051808881526020018773ffffffffffffffffffffffffffffffffffffffff1673ffffffffffffffffffffffffffffffffffffffff166c0100000000000000000000000002815260140186600560200280838360005b83811015610b0c578082015181840152602081019050610af1565b5050505090500185600660200280838360005b83811015610b3a578082015181840152602081019050610b1f565b505050509050018460ff1660ff167f01000000000000000000000000000000000000000000000000000000000000000281526001018360001916600019168152602001826000191660001916815260200197505050505050505060405180910390209050979650505050505050565b6000610bff6040805190810160405280600781526020017f6f776e65724f660000000000000000000000000000000000000000000000000081525083604051808281526020019150506040518091039020610990565b600190049050919050565b6000836040518082805190602001908083835b602083101515610c425780518252602082019150602081019050602083039250610c1d565b6001836020036101000a03801982511681845116808217855250505050505090500191505090815260200160405180910390208054806001018281610c8791906119ad565b916000526020600020900160008490919091509060001916905550806001846040518082805190602001908083835b602083101515610cdb5780518252602082019150602081019050602083039250610cb6565b6001836020036101000a0380198251168184511680821785525050505050509050019150509081526020016040518091039020600084600019166000191681526020019081526020016000208160001916905550505050565b6000808989898989898989604051808973ffffffffffffffffffffffffffffffffffffffff1673ffffffffffffffffffffffffffffffffffffffff166c010000000000000000000000000281526014018873ffffffffffffffffffffffffffffffffffffffff1673ffffffffffffffffffffffffffffffffffffffff166c010000000000000000000000000281526014018773ffffffffffffffffffffffffffffffffffffffff1673ffffffffffffffffffffffffffffffffffffffff166c010000000000000000000000000281526014018673ffffffffffffffffffffffffffffffffffffffff1673ffffffffffffffffffffffffffffffffffffffff166c010000000000000000000000000281526014018581526020018473ffffffffffffffffffffffffffffffffffffffff1673ffffffffffffffffffffffffffffffffffffffff166c0100000000000000000000000002815260140183600019166000191681526020018281526020019850505050505050505060405180910390209050610ef56040805190810160405280600681526020017f637265617465000000000000000000000000000000000000000000000000000081525082611650565b610f386040805190810160405280600681526020017f63726561746500000000000000000000000000000000000000000000000000008152506000600102610990565b6001900491505098975050505050505050565b6000610fe46040805190810160405280600881526020017f7472616e736665720000000000000000000000000000000000000000000000008152508484604051808373ffffffffffffffffffffffffffffffffffffffff1673ffffffffffffffffffffffffffffffffffffffff166c01000000000000000000000000028152601401828152602001925050506040518091039020611650565b6001905092915050565b60006111ab6040805190810160405280600681526020017f63726561746500000000000000000000000000000000000000000000000000008152508a8a8a8a8a8a8a8a604051808973ffffffffffffffffffffffffffffffffffffffff1673ffffffffffffffffffffffffffffffffffffffff166c010000000000000000000000000281526014018873ffffffffffffffffffffffffffffffffffffffff1673ffffffffffffffffffffffffffffffffffffffff166c010000000000000000000000000281526014018773ffffffffffffffffffffffffffffffffffffffff1673ffffffffffffffffffffffffffffffffffffffff166c010000000000000000000000000281526014018673ffffffffffffffffffffffffffffffffffffffff1673ffffffffffffffffffffffffffffffffffffffff166c010000000000000000000000000281526014018581526020018473ffffffffffffffffffffffffffffffffffffffff1673ffffffffffffffffffffffffffffffffffffffff166c010000000000000000000000000281526014018360001916600019168152602001828152602001985050505050505050506040518091039020611789565b905098975050505050505050565b60006111c36119d9565b600080600093505b600a8410156114aa576111dc611825565b84600a811015156111e957fe5b602002015192506000835114151561149d57600091505b6000836040518082805190602001908083835b6020831015156112385780518252602082019150602081019050602083039250611213565b6001836020036101000a038019825116818451168082178552505050505050905001915050908152602001604051809103902080549050821015611425576000836040518082805190602001908083835b6020831015156112ae5780518252602082019150602081019050602083039250611289565b6001836020036101000a0380198251168184511680821785525050505050509050019150509081526020016040518091039020828154811015156112ee57fe5b90600052602060002090015490506002836040518082805190602001908083835b602083101515611334578051825260208201915060208101905060208303925061130f565b6001836020036101000a03801982511681845116808217855250505050505090500191505090815260200160405180910390206000826000191660001916815260200190815260200160002060006101000a81549060ff02191690556001836040518082805190602001908083835b6020831015156113c857805182526020820191506020810190506020830392506113a3565b6001836020036101000a038019825116818451168082178552505050505050905001915050908152602001604051809103902060008260001916600019168152602001908152602001600020600090558180600101925050611200565b6000836040518082805190602001908083835b60208310151561145d5780518252602082019150602081019050602083039250611438565b6001836020036101000a0380198251168184511680821785525050505050509050019150509081526020016040518091039020600061149c91906119ed565b5b83806001019450506111cb565b50505050565b60006115f96040805190810160405280601181526020017f62726f6b65725a65726f45784f7264657200000000000000000000000000000081525089898989898989604051808881526020018773ffffffffffffffffffffffffffffffffffffffff1673ffffffffffffffffffffffffffffffffffffffff166c0100000000000000000000000002815260140186600560200280838360005b83811015611564578082015181840152602081019050611549565b5050505090500185600660200280838360005b83811015611592578082015181840152602081019050611577565b505050509050018460ff1660ff167f0100000000000000000000000000000000000000000000000000000000000000028152600101836000191660001916815260200182600019166000191681526020019750505050505050506040518091039020611789565b9050979650505050505050565b61164d6040805190810160405280600681526020017f6372656174650000000000000000000000000000000000000000000000000000815250600060010283600102610c0a565b50565b60016002836040518082805190602001908083835b60208310151561168a5780518252602082019150602081019050602083039250611665565b6001836020036101000a03801982511681845116808217855250505050505090500191505090815260200160405180910390206000836000191660001916815260200190815260200160002060006101000a81548160ff0219169083151502179055506000826040518082805190602001908083835b6020831015156117255780518252602082019150602081019050602083039250611700565b6001836020036101000a0380198251168184511680821785525050505050509050019150509081526020016040518091039020805480600101828161176a91906119ad565b9160005260206000209001600083909190915090600019169055505050565b60006002836040518082805190602001908083835b6020831015156117c3578051825260208201915060208101905060208303925061179e565b6001836020036101000a03801982511681845116808217855250505050505090500191505090815260200160405180910390206000836000191660001916815260200190815260200160002060009054906101000a900460ff16905092915050565b61182d611a0e565b610140604051908101604052806040805190810160405280600681526020017f637265617465000000000000000000000000000000000000000000000000000081525081526020016040805190810160405280601181526020017f62726f6b65725a65726f45784f7264657200000000000000000000000000000081525081526020016040805190810160405280600781526020017f6f776e65724f660000000000000000000000000000000000000000000000000081525081526020016040805190810160405280600881526020017f7472616e73666572000000000000000000000000000000000000000000000000815250815260200160206040519081016040528060008152508152602001602060405190810160405280600081525081526020016020604051908101604052806000815250815260200160206040519081016040528060008152508152602001602060405190810160405280600081525081526020016020604051908101604052806000815250815250905090565b8154818355818115116119d4578183600052602060002091820191016119d39190611a3d565b5b505050565b602060405190810160405280600081525090565b5080546000825590600052602060002090810190611a0b9190611a3d565b50565b61014060405190810160405280600a905b611a27611a62565b815260200190600190039081611a1f5790505090565b611a5f91905b80821115611a5b576000816000905550600101611a43565b5090565b90565b6020604051908101604052806000815250905600a165627a7a723058200694edef4e65979a7f2a5bf4b1e751f2e66eb41fee8848b9d629f1a4921dc9df0029",
  "source": "/*\n\n  Copyright 2017 Dharma Labs Inc.\n\n  Licensed under the Apache License, Version 2.0 (the \"License\");\n  you may not use this file except in compliance with the License.\n  You may obtain a copy of the License at\n\n    http://www.apache.org/licenses/LICENSE-2.0\n\n  Unless required by applicable law or agreed to in writing, software\n  distributed under the License is distributed on an \"AS IS\" BASIS,\n  WITHOUT WARRANTIES OR CONDITIONS OF ANY KIND, either express or implied.\n  See the License for the specific language governing permissions and\n  limitations under the License.\n\n*/\n\npragma solidity 0.4.19;\n\nimport \"./MockContract.sol\";\nimport \"zeppelin-solidity/contracts/token/ERC20/ERC20.sol\";\n\n\ncontract MockDebtToken is MockContract {\n    function create(\n        address _version,\n        address _beneficiary,\n        address _debtor,\n        address _underwriter,\n        uint _underwriterRiskRating,\n        address _termsContract,\n        bytes32 _termsContractParameters,\n        uint _salt\n    )\n        public\n        returns (uint _tokenId)\n    {\n        bytes32 argsSignature = keccak256(\n            _version,\n            _beneficiary,\n            _debtor,\n            _underwriter,\n            _underwriterRiskRating,\n            _termsContract,\n            _termsContractParameters,\n            _salt\n        );\n\n        functionCalledWithArgs(\"create\", argsSignature);\n\n        return uint(getMockReturnValue(\"create\", DEFAULT_SIGNATURE_ARGS));\n    }\n\n    function brokerZeroExOrder(\n        uint _tokenId,\n        address _zeroExExchangeContract,\n        address[5] _zeroExOrderAddresses,\n        uint[6] _zeroExOrderValues,\n        uint8 _v,\n        bytes32 _r,\n        bytes32 _s\n    )\n        public\n    {\n        functionCalledWithArgs(\"brokerZeroExOrder\", keccak256(\n            _tokenId,\n            _zeroExExchangeContract,\n            _zeroExOrderAddresses,\n            _zeroExOrderValues,\n            _v,\n            _r,\n            _s\n        ));\n    }\n\n    function mockCreateReturnValue(uint _tokenId)\n        public\n    {\n        mockReturnValue(\"create\", DEFAULT_SIGNATURE_ARGS, bytes32(_tokenId));\n    }\n\n    function wasCreateCalledWith(\n        address _version,\n        address _beneficiary,\n        address _debtor,\n        address _underwriter,\n        uint _underwriterRiskRating,\n        address _termsContract,\n        bytes32 _termsContractParameters,\n        uint _salt\n    )\n        public\n        view\n        returns (bool wasCalled)\n    {\n        return wasFunctionCalledWithArgs(\"create\", keccak256(\n            _version,\n            _beneficiary,\n            _debtor,\n            _underwriter,\n            _underwriterRiskRating,\n            _termsContract,\n            _termsContractParameters,\n            _salt\n        ));\n    }\n\n    function wasBrokerZeroExOrderCalledWith(\n        uint _tokenId,\n        address _zeroExExchangeContract,\n        address[5] _zeroExOrderAddresses,\n        uint[6] _zeroExOrderValues,\n        uint8 _v,\n        bytes32 _r,\n        bytes32 _s\n    )\n        public\n        view\n        returns (bool wasCalled)\n    {\n        return wasFunctionCalledWithArgs(\"brokerZeroExOrder\", keccak256(\n            _tokenId,\n            _zeroExExchangeContract,\n            _zeroExOrderAddresses,\n            _zeroExOrderValues,\n            _v,\n            _r,\n            _s\n        ));\n    }\n\n    function getBrokerZeroExCallSignature(\n        uint _tokenId,\n        address _zeroExExchangeContract,\n        address[5] _zeroExOrderAddresses,\n        uint[6] _zeroExOrderValues,\n        uint8 _v,\n        bytes32 _r,\n        bytes32 _s\n    )\n        public\n        pure\n        returns (bytes32 callSig)\n    {\n        return keccak256(\n            _tokenId,\n            _zeroExExchangeContract,\n            _zeroExOrderAddresses,\n            _zeroExOrderValues,\n            _v,\n            _r,\n            _s\n        );\n    }\n\n    function transfer(address _to, uint _tokenId)\n        public\n        returns (bool success)\n    {\n        functionCalledWithArgs(\"transfer\", keccak256(_to, _tokenId));\n\n        return true;\n    }\n\n    function wasTransferCalledWith(address _to, uint _tokenId)\n        public\n        view\n        returns (bool wasCalled)\n    {\n        return wasFunctionCalledWithArgs(\"transfer\", keccak256(_to, _tokenId));\n    }\n\n    function ownerOf(uint _tokenId)\n        public\n        view\n        returns (address _owner)\n    {\n        return address(getMockReturnValue(\"ownerOf\", keccak256(_tokenId)));\n    }\n\n    function mockOwnerOfFor(uint _tokenId, address _owner)\n        public\n    {\n        mockReturnValue(\"ownerOf\", keccak256(_tokenId), bytes32(_owner));\n    }\n\n    function getFunctionList()\n        internal\n        returns (string[10] functionNames)\n    {\n        return [\"create\", \"brokerZeroExOrder\", \"ownerOf\", \"transfer\", \"\", \"\", \"\", \"\", \"\", \"\"];\n    }\n}\n",
  "sourcePath": "/Users/talaltoukan/Documents/Blockchain/StudentLoanDApp/contracts/test/mocks/MockDebtToken.sol",
  "compiler": {
    "name": "solc",
    "version": "0.4.19+commit.c4cbbb05.Emscripten.clang"
  },
  "schemaVersion": "2.0.0",
  "updatedAt": "2018-04-04T02:48:11.825Z"
}