{
  "contractName": "RepaymentRouter",
  "abi": [
    {
      "constant": true,
      "inputs": [],
      "name": "tokenTransferProxy",
      "outputs": [
        {
          "name": "",
          "type": "address"
        }
      ],
      "payable": false,
      "stateMutability": "view",
      "type": "function"
    },
    {
      "constant": true,
      "inputs": [],
      "name": "debtRegistry",
      "outputs": [
        {
          "name": "",
          "type": "address"
        }
      ],
      "payable": false,
      "stateMutability": "view",
      "type": "function"
    },
    {
      "constant": false,
      "inputs": [],
      "name": "unpause",
      "outputs": [],
      "payable": false,
      "stateMutability": "nonpayable",
      "type": "function"
    },
    {
      "constant": true,
      "inputs": [],
      "name": "paused",
      "outputs": [
        {
          "name": "",
          "type": "bool"
        }
      ],
      "payable": false,
      "stateMutability": "view",
      "type": "function"
    },
    {
      "constant": false,
      "inputs": [],
      "name": "pause",
      "outputs": [],
      "payable": false,
      "stateMutability": "nonpayable",
      "type": "function"
    },
    {
      "constant": true,
      "inputs": [],
      "name": "owner",
      "outputs": [
        {
          "name": "",
          "type": "address"
        }
      ],
      "payable": false,
      "stateMutability": "view",
      "type": "function"
    },
    {
      "constant": false,
      "inputs": [
        {
          "name": "newOwner",
          "type": "address"
        }
      ],
      "name": "transferOwnership",
      "outputs": [],
      "payable": false,
      "stateMutability": "nonpayable",
      "type": "function"
    },
    {
      "inputs": [
        {
          "name": "_debtRegistry",
          "type": "address"
        },
        {
          "name": "_tokenTransferProxy",
          "type": "address"
        }
      ],
      "payable": false,
      "stateMutability": "nonpayable",
      "type": "constructor"
    },
    {
      "anonymous": false,
      "inputs": [
        {
          "indexed": true,
          "name": "_agreementId",
          "type": "bytes32"
        },
        {
          "indexed": true,
          "name": "_payer",
          "type": "address"
        },
        {
          "indexed": true,
          "name": "_beneficiary",
          "type": "address"
        },
        {
          "indexed": false,
          "name": "_amount",
          "type": "uint256"
        },
        {
          "indexed": false,
          "name": "_token",
          "type": "address"
        }
      ],
      "name": "LogRepayment",
      "type": "event"
    },
    {
      "anonymous": false,
      "inputs": [
        {
          "indexed": true,
          "name": "_errorId",
          "type": "uint8"
        },
        {
          "indexed": true,
          "name": "_agreementId",
          "type": "bytes32"
        }
      ],
      "name": "LogError",
      "type": "event"
    },
    {
      "anonymous": false,
      "inputs": [],
      "name": "Pause",
      "type": "event"
    },
    {
      "anonymous": false,
      "inputs": [],
      "name": "Unpause",
      "type": "event"
    },
    {
      "anonymous": false,
      "inputs": [
        {
          "indexed": true,
          "name": "previousOwner",
          "type": "address"
        },
        {
          "indexed": true,
          "name": "newOwner",
          "type": "address"
        }
      ],
      "name": "OwnershipTransferred",
      "type": "event"
    },
    {
      "constant": false,
      "inputs": [
        {
          "name": "agreementId",
          "type": "bytes32"
        },
        {
          "name": "amount",
          "type": "uint256"
        },
        {
          "name": "tokenAddress",
          "type": "address"
        }
      ],
      "name": "repay",
      "outputs": [
        {
          "name": "_amountRepaid",
          "type": "uint256"
        }
      ],
      "payable": false,
      "stateMutability": "nonpayable",
      "type": "function"
    }
  ],
  "bytecode": "0x606060405260008060146101000a81548160ff021916908315150217905550341561002957600080fd5b604051604080610f4e83398101604052808051906020019091908051906020019091905050336000806101000a81548173ffffffffffffffffffffffffffffffffffffffff021916908373ffffffffffffffffffffffffffffffffffffffff16021790555081600160006101000a81548173ffffffffffffffffffffffffffffffffffffffff021916908373ffffffffffffffffffffffffffffffffffffffff16021790555080600260006101000a81548173ffffffffffffffffffffffffffffffffffffffff021916908373ffffffffffffffffffffffffffffffffffffffff1602179055505050610e2d806101216000396000f30060606040526004361061008e576000357c0100000000000000000000000000000000000000000000000000000000900463ffffffff1680630eefdbad146100935780632f866f73146100e85780633f4ba83a1461013d5780635c975abb146101525780638456cb591461017f5780638da5cb5b14610194578063f2fde38b146101e9578063ff26812514610222575b600080fd5b341561009e57600080fd5b6100a6610285565b604051808273ffffffffffffffffffffffffffffffffffffffff1673ffffffffffffffffffffffffffffffffffffffff16815260200191505060405180910390f35b34156100f357600080fd5b6100fb6102ab565b604051808273ffffffffffffffffffffffffffffffffffffffff1673ffffffffffffffffffffffffffffffffffffffff16815260200191505060405180910390f35b341561014857600080fd5b6101506102d1565b005b341561015d57600080fd5b61016561038f565b604051808215151515815260200191505060405180910390f35b341561018a57600080fd5b6101926103a2565b005b341561019f57600080fd5b6101a7610462565b604051808273ffffffffffffffffffffffffffffffffffffffff1673ffffffffffffffffffffffffffffffffffffffff16815260200191505060405180910390f35b34156101f457600080fd5b610220600480803573ffffffffffffffffffffffffffffffffffffffff16906020019091905050610487565b005b341561022d57600080fd5b61026f60048080356000191690602001909190803590602001909190803573ffffffffffffffffffffffffffffffffffffffff169060200190919050506105dc565b6040518082815260200191505060405180910390f35b600260009054906101000a900473ffffffffffffffffffffffffffffffffffffffff1681565b600160009054906101000a900473ffffffffffffffffffffffffffffffffffffffff1681565b6000809054906101000a900473ffffffffffffffffffffffffffffffffffffffff1673ffffffffffffffffffffffffffffffffffffffff163373ffffffffffffffffffffffffffffffffffffffff1614151561032c57600080fd5b600060149054906101000a900460ff16151561034757600080fd5b60008060146101000a81548160ff0219169083151502179055507f7805862f689e2f13df9f062ff482ad3ad112aca9e0847911ed832e158c525b3360405160405180910390a1565b600060149054906101000a900460ff1681565b6000809054906101000a900473ffffffffffffffffffffffffffffffffffffffff1673ffffffffffffffffffffffffffffffffffffffff163373ffffffffffffffffffffffffffffffffffffffff161415156103fd57600080fd5b600060149054906101000a900460ff1615151561041957600080fd5b6001600060146101000a81548160ff0219169083151502179055507f6985a02210a168e66602d3235cb6db0e70f92b3ba4d376a33c0f3d9434bff62560405160405180910390a1565b6000809054906101000a900473ffffffffffffffffffffffffffffffffffffffff1681565b6000809054906101000a900473ffffffffffffffffffffffffffffffffffffffff1673ffffffffffffffffffffffffffffffffffffffff163373ffffffffffffffffffffffffffffffffffffffff161415156104e257600080fd5b600073ffffffffffffffffffffffffffffffffffffffff168173ffffffffffffffffffffffffffffffffffffffff161415151561051e57600080fd5b8073ffffffffffffffffffffffffffffffffffffffff166000809054906101000a900473ffffffffffffffffffffffffffffffffffffffff1673ffffffffffffffffffffffffffffffffffffffff167f8be0079c531659141344cd1fd0a4f28419497f9722a3daafe3b4186f6b6457e060405160405180910390a3806000806101000a81548173ffffffffffffffffffffffffffffffffffffffff021916908373ffffffffffffffffffffffffffffffffffffffff16021790555050565b60008060008060149054906101000a900460ff161515156105fc57600080fd5b600073ffffffffffffffffffffffffffffffffffffffff168473ffffffffffffffffffffffffffffffffffffffff161415151561063857600080fd5b60008511151561064757600080fd5b600160009054906101000a900473ffffffffffffffffffffffffffffffffffffffff1673ffffffffffffffffffffffffffffffffffffffff1663ba20dda4876000604051602001526040518263ffffffff167c0100000000000000000000000000000000000000000000000000000000028152600401808260001916600019168152602001915050602060405180830381600087803b15156106e857600080fd5b6102c65a03f115156106f957600080fd5b505050604051805190509150600073ffffffffffffffffffffffffffffffffffffffff168273ffffffffffffffffffffffffffffffffffffffff1614156107845785600019166000600381111561074c57fe5b60ff167f36d86c59e00bd73dc19ba3adfe068e4b64ac7e92be35546adeddf1b956a87e9060405160405180910390a360009250610df8565b848473ffffffffffffffffffffffffffffffffffffffff166370a08231336000604051602001526040518263ffffffff167c0100000000000000000000000000000000000000000000000000000000028152600401808273ffffffffffffffffffffffffffffffffffffffff1673ffffffffffffffffffffffffffffffffffffffff168152602001915050602060405180830381600087803b151561082857600080fd5b6102c65a03f1151561083957600080fd5b5050506040518051905010806109615750848473ffffffffffffffffffffffffffffffffffffffff1663dd62ed3e33600260009054906101000a900473ffffffffffffffffffffffffffffffffffffffff166000604051602001526040518363ffffffff167c0100000000000000000000000000000000000000000000000000000000028152600401808373ffffffffffffffffffffffffffffffffffffffff1673ffffffffffffffffffffffffffffffffffffffff1681526020018273ffffffffffffffffffffffffffffffffffffffff1673ffffffffffffffffffffffffffffffffffffffff16815260200192505050602060405180830381600087803b151561094457600080fd5b6102c65a03f1151561095557600080fd5b50505060405180519050105b156109b05785600019166001600381111561097857fe5b60ff167f36d86c59e00bd73dc19ba3adfe068e4b64ac7e92be35546adeddf1b956a87e9060405160405180910390a360009250610df8565b600160009054906101000a900473ffffffffffffffffffffffffffffffffffffffff1673ffffffffffffffffffffffffffffffffffffffff1663f6f494c9876000604051602001526040518263ffffffff167c0100000000000000000000000000000000000000000000000000000000028152600401808260001916600019168152602001915050602060405180830381600087803b1515610a5157600080fd5b6102c65a03f11515610a6257600080fd5b5050506040518051905090508073ffffffffffffffffffffffffffffffffffffffff16635f0280ba87338589896000604051602001526040518663ffffffff167c01000000000000000000000000000000000000000000000000000000000281526004018086600019166000191681526020018573ffffffffffffffffffffffffffffffffffffffff1673ffffffffffffffffffffffffffffffffffffffff1681526020018473ffffffffffffffffffffffffffffffffffffffff1673ffffffffffffffffffffffffffffffffffffffff1681526020018381526020018273ffffffffffffffffffffffffffffffffffffffff1673ffffffffffffffffffffffffffffffffffffffff16815260200195505050505050602060405180830381600087803b1515610b9157600080fd5b6102c65a03f11515610ba257600080fd5b505050604051805190501515610bfb578560001916600380811115610bc357fe5b60ff167f36d86c59e00bd73dc19ba3adfe068e4b64ac7e92be35546adeddf1b956a87e9060405160405180910390a360009250610df8565b600260009054906101000a900473ffffffffffffffffffffffffffffffffffffffff1673ffffffffffffffffffffffffffffffffffffffff166315dacbea853385896000604051602001526040518563ffffffff167c0100000000000000000000000000000000000000000000000000000000028152600401808573ffffffffffffffffffffffffffffffffffffffff1673ffffffffffffffffffffffffffffffffffffffff1681526020018473ffffffffffffffffffffffffffffffffffffffff1673ffffffffffffffffffffffffffffffffffffffff1681526020018373ffffffffffffffffffffffffffffffffffffffff1673ffffffffffffffffffffffffffffffffffffffff168152602001828152602001945050505050602060405180830381600087803b1515610d3057600080fd5b6102c65a03f11515610d4157600080fd5b505050604051805190501515610d5657600080fd5b8173ffffffffffffffffffffffffffffffffffffffff163373ffffffffffffffffffffffffffffffffffffffff1687600019167f43ea5a2b552489bf9de7c3d6ded86e3b82423e034255d06db4b388f806db50d08888604051808381526020018273ffffffffffffffffffffffffffffffffffffffff1673ffffffffffffffffffffffffffffffffffffffff1681526020019250505060405180910390a48492505b505093925050505600a165627a7a72305820332c76e9b83ba5247702bddaa832a7d4f8f9ef050ead1c6ff2261d01efc617590029",
  "source": "/*\n\n  Copyright 2017 Dharma Labs Inc.\n\n  Licensed under the Apache License, Version 2.0 (the \"License\");\n  you may not use this file except in compliance with the License.\n  You may obtain a copy of the License at\n\n    http://www.apache.org/licenses/LICENSE-2.0\n\n  Unless required by applicable law or agreed to in writing, software\n  distributed under the License is distributed on an \"AS IS\" BASIS,\n  WITHOUT WARRANTIES OR CONDITIONS OF ANY KIND, either express or implied.\n  See the License for the specific language governing permissions and\n  limitations under the License.\n\n*/\n\npragma solidity 0.4.19;\n\nimport \"./DebtRegistry.sol\";\nimport \"./TermsContract.sol\";\nimport \"./TokenTransferProxy.sol\";\nimport \"zeppelin-solidity/contracts/token/ERC20/ERC20.sol\";\nimport \"zeppelin-solidity/contracts/lifecycle/Pausable.sol\";\nimport \"../NonFungibleToken/contracts/ERC721.sol\";\n\n\n/**\n * The RepaymentRouter routes allowers payers to make repayments on any\n * given debt agreement in any given token by routing the payments to\n * the debt agreement's beneficiary.  Additionally, the router acts\n * as a trusted oracle to the debt agreement's terms contract, informing\n * it of exactly what payments have been made in what quantity and in what token.\n *\n * Authors: Jaynti Kanani -- Github: jdkanani, Nadav Hollander -- Github: nadavhollander\n */\ncontract RepaymentRouter is Pausable {\n    DebtRegistry public debtRegistry;\n    TokenTransferProxy public tokenTransferProxy;\n\n    enum Errors {\n        DEBT_AGREEMENT_NONEXISTENT,\n        PAYER_BALANCE_OR_ALLOWANCE_INSUFFICIENT,\n        PAYER_OWNERSHIP_OR_ROUTER_APPROVAL_MISSING,\n        ROUTER_UNAUTHORIZED_TO_REPORT_REPAYMENT\n    }\n\n    event LogRepayment(\n        bytes32 indexed _agreementId,\n        address indexed _payer,\n        address indexed _beneficiary,\n        uint _amount,\n        address _token\n    );\n\n    event LogError(uint8 indexed _errorId, bytes32 indexed _agreementId);\n\n    /**\n     * Constructor points the repayment router at the deployed registry contract.\n     */\n    function RepaymentRouter (address _debtRegistry, address _tokenTransferProxy) public {\n        debtRegistry = DebtRegistry(_debtRegistry);\n        tokenTransferProxy = TokenTransferProxy(_tokenTransferProxy);\n    }\n\n    /**\n     * Given an agreement id (synonymous to 'issuanceHash' in the debt registry), routes a repayment\n     * of a given ERC20 token  to the debt's current beneficiary, and reports the repayment\n     * to the debt's associated terms contract.\n     */\n    function repay(\n        bytes32 agreementId,\n        uint256 amount,\n        address tokenAddress\n    )\n        public\n        whenNotPaused\n        returns (uint _amountRepaid)\n    {\n        require(tokenAddress != address(0));\n        require(amount > 0);\n\n        // Get registry entry and check if entry is valid\n        address beneficiary = debtRegistry.getBeneficiary(agreementId);\n        if (beneficiary == address(0)) {\n            LogError(uint8(Errors.DEBT_AGREEMENT_NONEXISTENT), agreementId);\n            return 0;\n        }\n\n        // Check payer has sufficient balance and has granted router sufficient allowance\n        if (ERC20(tokenAddress).balanceOf(msg.sender) < amount ||\n            ERC20(tokenAddress).allowance(msg.sender, tokenTransferProxy) < amount) {\n            LogError(uint8(Errors.PAYER_BALANCE_OR_ALLOWANCE_INSUFFICIENT), agreementId);\n            return 0;\n        }\n\n        // Notify terms contract\n        address termsContract = debtRegistry.getTermsContract(agreementId);\n        if (!TermsContract(termsContract).registerRepayment(\n            agreementId,\n            msg.sender,\n            beneficiary,\n            amount,\n            tokenAddress\n        )) {\n            LogError(uint8(Errors.ROUTER_UNAUTHORIZED_TO_REPORT_REPAYMENT), agreementId);\n            return 0;\n        }\n\n        // Transfer amount to creditor\n        require(tokenTransferProxy.transferFrom(\n            tokenAddress,\n            msg.sender,\n            beneficiary,\n            amount\n        ));\n\n        // Log event for repayment\n        LogRepayment(agreementId, msg.sender, beneficiary, amount, tokenAddress);\n\n        return amount;\n    }\n}\n",
  "sourcePath": "/Users/talaltoukan/Documents/Blockchain/StudentLoanDApp/contracts/RepaymentRouter.sol",
  "compiler": {
    "name": "solc",
    "version": "0.4.19+commit.c4cbbb05.Emscripten.clang"
  },
  "schemaVersion": "2.0.0",
  "updatedAt": "2018-04-04T02:48:15.209Z"
}