{
  "contractName": "SimpleInterestTermsContract",
  "abi": [
    {
      "constant": true,
      "inputs": [],
      "name": "DAY_LENGTH_IN_SECONDS",
      "outputs": [
        {
          "name": "",
          "type": "uint256"
        }
      ],
      "payable": false,
      "stateMutability": "view",
      "type": "function"
    },
    {
      "constant": true,
      "inputs": [],
      "name": "MONTH_LENGTH_IN_SECONDS",
      "outputs": [
        {
          "name": "",
          "type": "uint256"
        }
      ],
      "payable": false,
      "stateMutability": "view",
      "type": "function"
    },
    {
      "constant": true,
      "inputs": [],
      "name": "WEEK_LENGTH_IN_SECONDS",
      "outputs": [
        {
          "name": "",
          "type": "uint256"
        }
      ],
      "payable": false,
      "stateMutability": "view",
      "type": "function"
    },
    {
      "constant": true,
      "inputs": [],
      "name": "HOUR_LENGTH_IN_SECONDS",
      "outputs": [
        {
          "name": "",
          "type": "uint256"
        }
      ],
      "payable": false,
      "stateMutability": "view",
      "type": "function"
    },
    {
      "constant": true,
      "inputs": [],
      "name": "YEAR_LENGTH_IN_SECONDS",
      "outputs": [
        {
          "name": "",
          "type": "uint256"
        }
      ],
      "payable": false,
      "stateMutability": "view",
      "type": "function"
    },
    {
      "inputs": [
        {
          "name": "_debtRegistry",
          "type": "address"
        },
        {
          "name": "_repaymentToken",
          "type": "address"
        },
        {
          "name": "_repaymentRouter",
          "type": "address"
        }
      ],
      "payable": false,
      "stateMutability": "nonpayable",
      "type": "constructor"
    },
    {
      "constant": false,
      "inputs": [
        {
          "name": "agreementId",
          "type": "bytes32"
        },
        {
          "name": "payer",
          "type": "address"
        },
        {
          "name": "beneficiary",
          "type": "address"
        },
        {
          "name": "unitsOfRepayment",
          "type": "uint256"
        },
        {
          "name": "tokenAddress",
          "type": "address"
        }
      ],
      "name": "registerRepayment",
      "outputs": [
        {
          "name": "_success",
          "type": "bool"
        }
      ],
      "payable": false,
      "stateMutability": "nonpayable",
      "type": "function"
    },
    {
      "constant": true,
      "inputs": [
        {
          "name": "agreementId",
          "type": "bytes32"
        },
        {
          "name": "timestamp",
          "type": "uint256"
        }
      ],
      "name": "getExpectedRepaymentValue",
      "outputs": [
        {
          "name": "_expectedRepaymentValue",
          "type": "uint256"
        }
      ],
      "payable": false,
      "stateMutability": "view",
      "type": "function"
    },
    {
      "constant": true,
      "inputs": [
        {
          "name": "agreementId",
          "type": "bytes32"
        }
      ],
      "name": "getValueRepaidToDate",
      "outputs": [
        {
          "name": "_valueRepaid",
          "type": "uint256"
        }
      ],
      "payable": false,
      "stateMutability": "view",
      "type": "function"
    },
    {
      "constant": true,
      "inputs": [
        {
          "name": "parameters",
          "type": "bytes32"
        }
      ],
      "name": "unpackParameters",
      "outputs": [
        {
          "name": "_principalPlusInterest",
          "type": "uint128"
        },
        {
          "name": "_amortizationUnitType",
          "type": "uint8"
        },
        {
          "name": "_termLengthInAmortizationUnits",
          "type": "uint120"
        }
      ],
      "payable": false,
      "stateMutability": "pure",
      "type": "function"
    },
    {
      "constant": true,
      "inputs": [
        {
          "name": "amortizationUnitType",
          "type": "uint8"
        }
      ],
      "name": "getAmortizationUnitLengthInSeconds",
      "outputs": [
        {
          "name": "_amortizationUnitLengthInBlocks",
          "type": "uint256"
        }
      ],
      "payable": false,
      "stateMutability": "pure",
      "type": "function"
    }
  ],
  "bytecode": "0x6060604052341561000f57600080fd5b604051606080610a5d8339810160405280805190602001909190805190602001909190805190602001909190505082600160006101000a81548173ffffffffffffffffffffffffffffffffffffffff021916908373ffffffffffffffffffffffffffffffffffffffff16021790555081600260006101000a81548173ffffffffffffffffffffffffffffffffffffffff021916908373ffffffffffffffffffffffffffffffffffffffff16021790555080600360006101000a81548173ffffffffffffffffffffffffffffffffffffffff021916908373ffffffffffffffffffffffffffffffffffffffff16021790555050505061094b806101126000396000f3006060604052600436106100a4576000357c0100000000000000000000000000000000000000000000000000000000900463ffffffff16806303a896a1146100a957806307762982146100e4578063113d81c01461010d57806320863894146101a257806340018a0d146101cb5780635f0280ba146101f45780636b3a12b7146102995780636f69c96f146102d357806399114d84146102fc578063fd127a4114610340575b600080fd5b34156100b457600080fd5b6100ce600480803560001916906020019091905050610369565b6040518082815260200191505060405180910390f35b34156100ef57600080fd5b6100f761038d565b6040518082815260200191505060405180910390f35b341561011857600080fd5b610132600480803560001916906020019091905050610396565b60405180846fffffffffffffffffffffffffffffffff166fffffffffffffffffffffffffffffffff1681526020018360ff1660ff168152602001826effffffffffffffffffffffffffffff166effffffffffffffffffffffffffffff168152602001935050505060405180910390f35b34156101ad57600080fd5b6101b5610457565b6040518082815260200191505060405180910390f35b34156101d657600080fd5b6101de610463565b6040518082815260200191505060405180910390f35b34156101ff57600080fd5b61027f60048080356000191690602001909190803573ffffffffffffffffffffffffffffffffffffffff1690602001909190803573ffffffffffffffffffffffffffffffffffffffff1690602001909190803590602001909190803573ffffffffffffffffffffffffffffffffffffffff1690602001909190505061046f565b604051808215151515815260200191505060405180910390f35b34156102a457600080fd5b6102bd600480803560ff16906020019091905050610589565b6040518082815260200191505060405180910390f35b34156102de57600080fd5b6102e6610659565b6040518082815260200191505060405180910390f35b341561030757600080fd5b61032a60048080356000191690602001909190803590602001909190505061065f565b6040518082815260200191505060405180910390f35b341561034b57600080fd5b610353610885565b6040518082815260200191505060405180910390f35b60008060008360001916600019168152602001908152602001600020549050919050565b6018610e100281565b6000806000806000806000807fffffffffffffffffffffffffffffffff00000000000000000000000000000000600102891694506fff00000000000000000000000000000060010289169350700100000000000000000000000000000000856001900481151561040257fe5b0492506f01000000000000000000000000000000846001900481151561042457fe5b0491506effffffffffffffffffffffffffffff600102891690508282826001900497509750975050505050509193909250565b601e6018610e10020281565b60076018610e10020281565b6000600360009054906101000a900473ffffffffffffffffffffffffffffffffffffffff1673ffffffffffffffffffffffffffffffffffffffff163373ffffffffffffffffffffffffffffffffffffffff161415156104d15760009050610580565b600260009054906101000a900473ffffffffffffffffffffffffffffffffffffffff1673ffffffffffffffffffffffffffffffffffffffff168273ffffffffffffffffffffffffffffffffffffffff16141561057b576105548360008089600019166000191681526020019081526020016000205461089290919063ffffffff16565b60008088600019166000191681526020019081526020016000208190555060019050610580565b600090505b95945050505050565b600080600481111561059757fe5b60ff168260ff1614156105ae57610e109050610654565b600160048111156105bb57fe5b60ff168260ff1614156105d5576018610e10029050610654565b600260048111156105e257fe5b60ff168260ff1614156105ff5760076018610e1002029050610654565b6003600481111561060c57fe5b60ff168260ff16141561062957601e6018610e1002029050610654565b60048081111561063557fe5b60ff168260ff1614156106535761016d6018610e1002029050610654565b5b919050565b610e1081565b600080600080600080600080600160009054906101000a900473ffffffffffffffffffffffffffffffffffffffff1673ffffffffffffffffffffffffffffffffffffffff1663314a522e8b6000604051602001526040518263ffffffff167c0100000000000000000000000000000000000000000000000000000000028152600401808260001916600019168152602001915050602060405180830381600087803b151561070c57600080fd5b6102c65a03f1151561071d57600080fd5b505050604051805190509650600160009054906101000a900473ffffffffffffffffffffffffffffffffffffffff1673ffffffffffffffffffffffffffffffffffffffff1663d69dbf638b6000604051602001526040518263ffffffff167c0100000000000000000000000000000000000000000000000000000000028152600401808260001916600019168152602001915050602060405180830381600087803b15156107ca57600080fd5b6102c65a03f115156107db57600080fd5b5050506040518051905095506107f087610396565b80955081965082975050505061080584610589565b915061082c8261081e888c6108b090919063ffffffff16565b6108c990919063ffffffff16565b9050610876836effffffffffffffffffffffffffffff16610868876fffffffffffffffffffffffffffffffff16846108e490919063ffffffff16565b6108c990919063ffffffff16565b97505050505050505092915050565b61016d6018610e10020281565b60008082840190508381101515156108a657fe5b8091505092915050565b60008282111515156108be57fe5b818303905092915050565b60008082848115156108d757fe5b0490508091505092915050565b60008060008414156108f95760009150610918565b828402905082848281151561090a57fe5b0414151561091457fe5b8091505b50929150505600a165627a7a72305820e9150d2d9e4ffdea6f406ce77506e4dcf34115396395d645db9c459434cf066d0029",
  "source": "/*\n\n  Copyright 2017 Dharma Labs Inc.\n\n  Licensed under the Apache License, Version 2.0 (the \"License\");\n  you may not use this file except in compliance with the License.\n  You may obtain a copy of the License at\n\n    http://www.apache.org/licenses/LICENSE-2.0\n\n  Unless required by applicable law or agreed to in writing, software\n  distributed under the License is distributed on an \"AS IS\" BASIS,\n  WITHOUT WARRANTIES OR CONDITIONS OF ANY KIND, either express or implied.\n  See the License for the specific language governing permissions and\n  limitations under the License.\n\n*/\n\npragma solidity 0.4.19;\n\nimport \"zeppelin-solidity/contracts/math/SafeMath.sol\";\nimport \"../DebtRegistry.sol\";\nimport \"../TermsContract.sol\";\n\n\ncontract SimpleInterestTermsContract is TermsContract {\n    using SafeMath for uint;\n\n    enum AmortizationUnitType { HOURS, DAYS, WEEKS, MONTHS, YEARS }\n\n    uint public constant HOUR_LENGTH_IN_SECONDS = 60 * 60;\n    uint public constant DAY_LENGTH_IN_SECONDS = HOUR_LENGTH_IN_SECONDS * 24;\n    uint public constant WEEK_LENGTH_IN_SECONDS = DAY_LENGTH_IN_SECONDS * 7;\n    uint public constant MONTH_LENGTH_IN_SECONDS = DAY_LENGTH_IN_SECONDS * 30;\n    uint public constant YEAR_LENGTH_IN_SECONDS = DAY_LENGTH_IN_SECONDS * 365;\n\n    mapping (bytes32 => uint) valueRepaid;\n\n    DebtRegistry debtRegistry;\n\n    address repaymentToken;\n    address repaymentRouter;\n\n    function SimpleInterestTermsContract(\n        address _debtRegistry,\n        address _repaymentToken,\n        address _repaymentRouter\n    )\n        public\n    {\n        debtRegistry = DebtRegistry(_debtRegistry);\n\n        repaymentToken = _repaymentToken;\n        repaymentRouter = _repaymentRouter;\n    }\n\n     /// When called, the registerRepayment function records the debtor's\n     ///  repayment, as well as any auxiliary metadata needed by the contract\n     ///  to determine ex post facto the value repaid (e.g. current USD\n     ///  exchange rate)\n     /// @param  agreementId bytes32. The agreement id (issuance hash) of the debt agreement to which this pertains.\n     /// @param  payer address. The address of the payer.\n     /// @param  beneficiary address. The address of the payment's beneficiary.\n     /// @param  unitsOfRepayment uint. The units-of-value repaid in the transaction.\n     /// @param  tokenAddress address. The address of the token with which the repayment transaction was executed.\n    function registerRepayment(\n        bytes32 agreementId,\n        address payer,\n        address beneficiary,\n        uint256 unitsOfRepayment,\n        address tokenAddress\n    )\n        public\n        returns (bool _success)\n    {\n        if (msg.sender != repaymentRouter) {\n            return false;\n        }\n\n        if (tokenAddress == repaymentToken) {\n            valueRepaid[agreementId] = valueRepaid[agreementId].add(unitsOfRepayment);\n            return true;\n        }\n\n        return false;\n    }\n\n     /// Returns the cumulative units-of-value expected to be repaid given a block's timestamp.\n     ///  Note this is not a constant function -- this value can vary on basis of any number of\n     ///  conditions (e.g. interest rates can be renegotiated if repayments are delinquent).\n     /// @param  agreementId bytes32. The agreement id (issuance hash) of the debt agreement to which this pertains.\n     /// @param  timestamp uint. The timestamp for which repayment expectation is being queried.\n     /// @return uint256 The cumulative units-of-value expected to be repaid given a block's timestamp.\n    function getExpectedRepaymentValue(\n        bytes32 agreementId,\n        uint256 timestamp\n    )\n        public\n        view\n        returns (uint _expectedRepaymentValue)\n    {\n        bytes32 parameters = debtRegistry.getTermsContractParameters(agreementId);\n        uint issuanceBlockTimestamp = debtRegistry.getIssuanceBlockTimestamp(agreementId);\n\n        uint128 principalPlusInterest;\n        uint8 amortizationUnitType;\n        uint120 termLengthInAmortizationUnits;\n\n        (principalPlusInterest, amortizationUnitType, termLengthInAmortizationUnits) =\n            unpackParameters(parameters);\n\n        uint amortizationUnitLength = getAmortizationUnitLengthInSeconds(amortizationUnitType);\n        uint numRepaymentPeriods = timestamp.sub(issuanceBlockTimestamp).div(amortizationUnitLength);\n\n        return numRepaymentPeriods.mul(principalPlusInterest).div(termLengthInAmortizationUnits);\n    }\n\n     /// Returns the cumulative units-of-value repaid to date.\n     /// @param agreementId bytes32. The agreement id (issuance hash) of the debt agreement to which this pertains.\n     /// @return uint256 The cumulative units-of-value repaid by the specified block timestamp.\n    function getValueRepaidToDate(bytes32 agreementId)\n        public\n        view\n        returns (uint _valueRepaid)\n    {\n        return valueRepaid[agreementId];\n    }\n\n    function unpackParameters(bytes32 parameters)\n        public\n        pure\n        returns (\n            uint128 _principalPlusInterest,\n            uint8 _amortizationUnitType,\n            uint120 _termLengthInAmortizationUnits\n        )\n    {\n        // The first 16 bytes of the parameters represent the total principal + interest\n        bytes32 principalPlusInterestShifted =\n            parameters & 0xffffffffffffffffffffffffffffffff00000000000000000000000000000000;\n        // The subsequent byte represents the amortization unit type code\n        bytes32 amortizationUnitTypeShifted =\n            parameters & 0x00000000000000000000000000000000ff000000000000000000000000000000;\n\n        // We bit-shift these values, respectively, 16 bytes and 15 bytes right using\n        // mathematical operations, so that their 32 byte integer counterparts\n        // correspond to the intended values packed in the 32 byte string\n        uint principalPlusInterest = uint(principalPlusInterestShifted) / 2 ** 128;\n        uint amortizationUnitType = uint(amortizationUnitTypeShifted) / 2 ** 120;\n\n        // The last 15 bytes of the parameters represents the term length of the loan,\n        // as defined in terms of the specified amortization units.\n        // Since this value takes the rightmost place in the parameters string,\n        // we do not need to bit-shift it.\n        bytes32 termLengthInAmortizationUnits =\n            parameters & 0x0000000000000000000000000000000000ffffffffffffffffffffffffffffff;\n\n        return (\n            uint128(principalPlusInterest),\n            uint8(amortizationUnitType),\n            uint120(termLengthInAmortizationUnits)\n        );\n    }\n\n    function getAmortizationUnitLengthInSeconds(uint8 amortizationUnitType)\n        public\n        pure\n        returns (uint _amortizationUnitLengthInBlocks)\n    {\n        if (amortizationUnitType == uint8(AmortizationUnitType.HOURS)) {\n            return HOUR_LENGTH_IN_SECONDS;\n        } else if (amortizationUnitType == uint8(AmortizationUnitType.DAYS)) {\n            return DAY_LENGTH_IN_SECONDS;\n        } else if (amortizationUnitType == uint8(AmortizationUnitType.WEEKS)) {\n            return WEEK_LENGTH_IN_SECONDS;\n        } else if (amortizationUnitType == uint8(AmortizationUnitType.MONTHS)) {\n            return MONTH_LENGTH_IN_SECONDS;\n        } else if (amortizationUnitType == uint8(AmortizationUnitType.YEARS)) {\n            return YEAR_LENGTH_IN_SECONDS;\n        }\n    }\n}\n",
  "sourcePath": "/Users/talaltoukan/Documents/Blockchain/StudentLoanDApp/contracts/examples/SimpleInterestTermsContract.sol",
  "compiler": {
    "name": "solc",
    "version": "0.4.19+commit.c4cbbb05.Emscripten.clang"
  },
  "schemaVersion": "2.0.0",
  "updatedAt": "2018-04-04T02:48:13.455Z"
}